{"contracts/Reputation.sol":{"Reputation":{"abi":[{"inputs":[],"stateMutability":"nonpayable","type":"constructor"},{"inputs":[{"internalType":"address","name":"owner","type":"address"}],"name":"OwnableInvalidOwner","type":"error"},{"inputs":[{"internalType":"address","name":"account","type":"address"}],"name":"OwnableUnauthorizedAccount","type":"error"},{"anonymous":false,"inputs":[{"indexed":true,"internalType":"address","name":"previousOwner","type":"address"},{"indexed":true,"internalType":"address","name":"newOwner","type":"address"}],"name":"OwnershipTransferred","type":"event"},{"anonymous":false,"inputs":[{"indexed":true,"internalType":"uint256","name":"tokenId","type":"uint256"},{"indexed":false,"internalType":"uint8","name":"newRating","type":"uint8"},{"indexed":false,"internalType":"string","name":"newWorkHistoryURI","type":"string"},{"indexed":false,"internalType":"uint256","name":"timestamp","type":"uint256"}],"name":"ReputationUpdated","type":"event"},{"inputs":[{"internalType":"uint256","name":"tokenId","type":"uint256"}],"name":"getReputation","outputs":[{"internalType":"uint8","name":"rating","type":"uint8"},{"internalType":"string","name":"workHistoryURI","type":"string"},{"internalType":"uint256","name":"lastUpdated","type":"uint256"}],"stateMutability":"view","type":"function"},{"inputs":[],"name":"owner","outputs":[{"internalType":"address","name":"","type":"address"}],"stateMutability":"view","type":"function"},{"inputs":[],"name":"renounceOwnership","outputs":[],"stateMutability":"nonpayable","type":"function"},{"inputs":[{"internalType":"address","name":"newOwner","type":"address"}],"name":"transferOwnership","outputs":[],"stateMutability":"nonpayable","type":"function"},{"inputs":[{"internalType":"uint256","name":"tokenId","type":"uint256"},{"internalType":"uint8","name":"newRating","type":"uint8"},{"internalType":"string","name":"newWorkHistoryURI","type":"string"}],"name":"updateReputation","outputs":[],"stateMutability":"nonpayable","type":"function"}],"evm":{"bytecode":{"linkReferences":{},"object":"608060405234801561001057600080fd5b5033600073ffffffffffffffffffffffffffffffffffffffff168173ffffffffffffffffffffffffffffffffffffffff16036100845760006040517f1e4fbdf700000000000000000000000000000000000000000000000000000000815260040161007b919061019e565b60405180910390fd5b6100938161009960201b60201c565b506101b9565b60008060009054906101000a900473ffffffffffffffffffffffffffffffffffffffff169050816000806101000a81548173ffffffffffffffffffffffffffffffffffffffff021916908373ffffffffffffffffffffffffffffffffffffffff1602179055508173ffffffffffffffffffffffffffffffffffffffff168173ffffffffffffffffffffffffffffffffffffffff167f8be0079c531659141344cd1fd0a4f28419497f9722a3daafe3b4186f6b6457e060405160405180910390a35050565b600073ffffffffffffffffffffffffffffffffffffffff82169050919050565b60006101888261015d565b9050919050565b6101988161017d565b82525050565b60006020820190506101b3600083018461018f565b92915050565b610e13806101c86000396000f3fe608060405234801561001057600080fd5b50600436106100575760003560e01c8063715018a61461005c57806389370d8b146100665780638da5cb5b1461009857806397ae1879146100b6578063f2fde38b146100d2575b600080fd5b6100646100ee565b005b610080600480360381019061007b91906105ea565b610102565b60405161008f939291906106d2565b60405180910390f35b6100a0610246565b6040516100ad9190610751565b60405180910390f35b6100d060048036038101906100cb91906108cd565b61026f565b005b6100ec60048036038101906100e79190610968565b6103c7565b005b6100f661044d565b61010060006104d4565b565b60006060600080600160008681526020019081526020016000206040518060600160405290816000820160009054906101000a900460ff1660ff1660ff168152602001600182018054610154906109c4565b80601f0160208091040260200160405190810160405280929190818152602001828054610180906109c4565b80156101cd5780601f106101a2576101008083540402835291602001916101cd565b820191906000526020600020905b8154815290600101906020018083116101b057829003601f168201915b5050505050815260200160028201548152505090506000816040015103610229576040517f08c379a000000000000000000000000000000000000000000000000000000000815260040161022090610a67565b60405180910390fd5b806000015181602001518260400151935093509350509193909250565b60008060009054906101000a900473ffffffffffffffffffffffffffffffffffffffff16905090565b61027761044d565b60008260ff1611801561028e575060058260ff1611155b6102cd576040517f08c379a00000000000000000000000000000000000000000000000000000000081526004016102c490610ad3565b60405180910390fd5b6000815111610311576040517f08c379a000000000000000000000000000000000000000000000000000000000815260040161030890610b3f565b60405180910390fd5b60405180606001604052808360ff168152602001828152602001428152506001600085815260200190815260200160002060008201518160000160006101000a81548160ff021916908360ff16021790555060208201518160010190816103789190610d0b565b5060408201518160020155905050827fb2e582d3dd8cd563806256a135e184776c6ed04dabb1464411648acb07e0cbfe8383426040516103ba939291906106d2565b60405180910390a2505050565b6103cf61044d565b600073ffffffffffffffffffffffffffffffffffffffff168173ffffffffffffffffffffffffffffffffffffffff16036104415760006040517f1e4fbdf70000000000000000000000000000000000000000000000000000000081526004016104389190610751565b60405180910390fd5b61044a816104d4565b50565b610455610598565b73ffffffffffffffffffffffffffffffffffffffff16610473610246565b73ffffffffffffffffffffffffffffffffffffffff16146104d257610496610598565b6040517f118cdaa70000000000000000000000000000000000000000000000000000000081526004016104c99190610751565b60405180910390fd5b565b60008060009054906101000a900473ffffffffffffffffffffffffffffffffffffffff169050816000806101000a81548173ffffffffffffffffffffffffffffffffffffffff021916908373ffffffffffffffffffffffffffffffffffffffff1602179055508173ffffffffffffffffffffffffffffffffffffffff168173ffffffffffffffffffffffffffffffffffffffff167f8be0079c531659141344cd1fd0a4f28419497f9722a3daafe3b4186f6b6457e060405160405180910390a35050565b600033905090565b6000604051905090565b600080fd5b600080fd5b6000819050919050565b6105c7816105b4565b81146105d257600080fd5b50565b6000813590506105e4816105be565b92915050565b600060208284031215610600576105ff6105aa565b5b600061060e848285016105d5565b91505092915050565b600060ff82169050919050565b61062d81610617565b82525050565b600081519050919050565b600082825260208201905092915050565b60005b8381101561066d578082015181840152602081019050610652565b60008484015250505050565b6000601f19601f8301169050919050565b600061069582610633565b61069f818561063e565b93506106af81856020860161064f565b6106b881610679565b840191505092915050565b6106cc816105b4565b82525050565b60006060820190506106e76000830186610624565b81810360208301526106f9818561068a565b905061070860408301846106c3565b949350505050565b600073ffffffffffffffffffffffffffffffffffffffff82169050919050565b600061073b82610710565b9050919050565b61074b81610730565b82525050565b60006020820190506107666000830184610742565b92915050565b61077581610617565b811461078057600080fd5b50565b6000813590506107928161076c565b92915050565b600080fd5b600080fd5b7f4e487b7100000000000000000000000000000000000000000000000000000000600052604160045260246000fd5b6107da82610679565b810181811067ffffffffffffffff821117156107f9576107f86107a2565b5b80604052505050565b600061080c6105a0565b905061081882826107d1565b919050565b600067ffffffffffffffff821115610838576108376107a2565b5b61084182610679565b9050602081019050919050565b82818337600083830152505050565b600061087061086b8461081d565b610802565b90508281526020810184848401111561088c5761088b61079d565b5b61089784828561084e565b509392505050565b600082601f8301126108b4576108b3610798565b5b81356108c484826020860161085d565b91505092915050565b6000806000606084860312156108e6576108e56105aa565b5b60006108f4868287016105d5565b935050602061090586828701610783565b925050604084013567ffffffffffffffff811115610926576109256105af565b5b6109328682870161089f565b9150509250925092565b61094581610730565b811461095057600080fd5b50565b6000813590506109628161093c565b92915050565b60006020828403121561097e5761097d6105aa565b5b600061098c84828501610953565b91505092915050565b7f4e487b7100000000000000000000000000000000000000000000000000000000600052602260045260246000fd5b600060028204905060018216806109dc57607f821691505b6020821081036109ef576109ee610995565b5b50919050565b7f4e6f2072657075746174696f6e206461746120617661696c61626c6520666f7260008201527f207468697320746f6b656e000000000000000000000000000000000000000000602082015250565b6000610a51602b8361063e565b9150610a5c826109f5565b604082019050919050565b60006020820190508181036000830152610a8081610a44565b9050919050565b7f526174696e67206d757374206265206265747765656e203120616e6420350000600082015250565b6000610abd601e8361063e565b9150610ac882610a87565b602082019050919050565b60006020820190508181036000830152610aec81610ab0565b9050919050565b7f576f726b20486973746f7279205552492063616e6e6f7420626520656d707479600082015250565b6000610b2960208361063e565b9150610b3482610af3565b602082019050919050565b60006020820190508181036000830152610b5881610b1c565b9050919050565b60008190508160005260206000209050919050565b60006020601f8301049050919050565b600082821b905092915050565b600060088302610bc17fffffffffffffffffffffffffffffffffffffffffffffffffffffffffffffffff82610b84565b610bcb8683610b84565b95508019841693508086168417925050509392505050565b6000819050919050565b6000610c08610c03610bfe846105b4565b610be3565b6105b4565b9050919050565b6000819050919050565b610c2283610bed565b610c36610c2e82610c0f565b848454610b91565b825550505050565b600090565b610c4b610c3e565b610c56818484610c19565b505050565b5b81811015610c7a57610c6f600082610c43565b600181019050610c5c565b5050565b601f821115610cbf57610c9081610b5f565b610c9984610b74565b81016020851015610ca8578190505b610cbc610cb485610b74565b830182610c5b565b50505b505050565b600082821c905092915050565b6000610ce260001984600802610cc4565b1980831691505092915050565b6000610cfb8383610cd1565b9150826002028217905092915050565b610d1482610633565b67ffffffffffffffff811115610d2d57610d2c6107a2565b5b610d3782546109c4565b610d42828285610c7e565b600060209050601f831160018114610d755760008415610d63578287015190505b610d6d8582610cef565b865550610dd5565b601f198416610d8386610b5f565b60005b82811015610dab57848901518255600182019150602085019450602081019050610d86565b86831015610dc85784890151610dc4601f891682610cd1565b8355505b6001600288020188555050505b50505050505056fea26469706673582212200ae519ca7441e1638553ccf06d7a69131e5b1d9fe3dbf989a521c39dc881641664736f6c63430008140033","opcodes":"PUSH1 0x80 PUSH1 0x40 MSTORE CALLVALUE DUP1 ISZERO PUSH2 0x10 JUMPI PUSH1 0x0 DUP1 REVERT JUMPDEST POP CALLER PUSH1 0x0 PUSH20 0xFFFFFFFFFFFFFFFFFFFFFFFFFFFFFFFFFFFFFFFF AND DUP2 PUSH20 0xFFFFFFFFFFFFFFFFFFFFFFFFFFFFFFFFFFFFFFFF AND SUB PUSH2 0x84 JUMPI PUSH1 0x0 PUSH1 0x40 MLOAD PUSH32 0x1E4FBDF700000000000000000000000000000000000000000000000000000000 DUP2 MSTORE PUSH1 0x4 ADD PUSH2 0x7B SWAP2 SWAP1 PUSH2 0x19E JUMP JUMPDEST PUSH1 0x40 MLOAD DUP1 SWAP2 SUB SWAP1 REVERT JUMPDEST PUSH2 0x93 DUP2 PUSH2 0x99 PUSH1 0x20 SHL PUSH1 0x20 SHR JUMP JUMPDEST POP PUSH2 0x1B9 JUMP JUMPDEST PUSH1 0x0 DUP1 PUSH1 0x0 SWAP1 SLOAD SWAP1 PUSH2 0x100 EXP SWAP1 DIV PUSH20 0xFFFFFFFFFFFFFFFFFFFFFFFFFFFFFFFFFFFFFFFF AND SWAP1 POP DUP2 PUSH1 0x0 DUP1 PUSH2 0x100 EXP DUP2 SLOAD DUP2 PUSH20 0xFFFFFFFFFFFFFFFFFFFFFFFFFFFFFFFFFFFFFFFF MUL NOT AND SWAP1 DUP4 PUSH20 0xFFFFFFFFFFFFFFFFFFFFFFFFFFFFFFFFFFFFFFFF AND MUL OR SWAP1 SSTORE POP DUP2 PUSH20 0xFFFFFFFFFFFFFFFFFFFFFFFFFFFFFFFFFFFFFFFF AND DUP2 PUSH20 0xFFFFFFFFFFFFFFFFFFFFFFFFFFFFFFFFFFFFFFFF AND PUSH32 0x8BE0079C531659141344CD1FD0A4F28419497F9722A3DAAFE3B4186F6B6457E0 PUSH1 0x40 MLOAD PUSH1 0x40 MLOAD DUP1 SWAP2 SUB SWAP1 LOG3 POP POP JUMP JUMPDEST PUSH1 0x0 PUSH20 0xFFFFFFFFFFFFFFFFFFFFFFFFFFFFFFFFFFFFFFFF DUP3 AND SWAP1 POP SWAP2 SWAP1 POP JUMP JUMPDEST PUSH1 0x0 PUSH2 0x188 DUP3 PUSH2 0x15D JUMP JUMPDEST SWAP1 POP SWAP2 SWAP1 POP JUMP JUMPDEST PUSH2 0x198 DUP2 PUSH2 0x17D JUMP JUMPDEST DUP3 MSTORE POP POP JUMP JUMPDEST PUSH1 0x0 PUSH1 0x20 DUP3 ADD SWAP1 POP PUSH2 0x1B3 PUSH1 0x0 DUP4 ADD DUP5 PUSH2 0x18F JUMP JUMPDEST SWAP3 SWAP2 POP POP JUMP JUMPDEST PUSH2 0xE13 DUP1 PUSH2 0x1C8 PUSH1 0x0 CODECOPY PUSH1 0x0 RETURN INVALID PUSH1 0x80 PUSH1 0x40 MSTORE CALLVALUE DUP1 ISZERO PUSH2 0x10 JUMPI PUSH1 0x0 DUP1 REVERT JUMPDEST POP PUSH1 0x4 CALLDATASIZE LT PUSH2 0x57 JUMPI PUSH1 0x0 CALLDATALOAD PUSH1 0xE0 SHR DUP1 PUSH4 0x715018A6 EQ PUSH2 0x5C JUMPI DUP1 PUSH4 0x89370D8B EQ PUSH2 0x66 JUMPI DUP1 PUSH4 0x8DA5CB5B EQ PUSH2 0x98 JUMPI DUP1 PUSH4 0x97AE1879 EQ PUSH2 0xB6 JUMPI DUP1 PUSH4 0xF2FDE38B EQ PUSH2 0xD2 JUMPI JUMPDEST PUSH1 0x0 DUP1 REVERT JUMPDEST PUSH2 0x64 PUSH2 0xEE JUMP JUMPDEST STOP JUMPDEST PUSH2 0x80 PUSH1 0x4 DUP1 CALLDATASIZE SUB DUP2 ADD SWAP1 PUSH2 0x7B SWAP2 SWAP1 PUSH2 0x5EA JUMP JUMPDEST PUSH2 0x102 JUMP JUMPDEST PUSH1 0x40 MLOAD PUSH2 0x8F SWAP4 SWAP3 SWAP2 SWAP1 PUSH2 0x6D2 JUMP JUMPDEST PUSH1 0x40 MLOAD DUP1 SWAP2 SUB SWAP1 RETURN JUMPDEST PUSH2 0xA0 PUSH2 0x246 JUMP JUMPDEST PUSH1 0x40 MLOAD PUSH2 0xAD SWAP2 SWAP1 PUSH2 0x751 JUMP JUMPDEST PUSH1 0x40 MLOAD DUP1 SWAP2 SUB SWAP1 RETURN JUMPDEST PUSH2 0xD0 PUSH1 0x4 DUP1 CALLDATASIZE SUB DUP2 ADD SWAP1 PUSH2 0xCB SWAP2 SWAP1 PUSH2 0x8CD JUMP JUMPDEST PUSH2 0x26F JUMP JUMPDEST STOP JUMPDEST PUSH2 0xEC PUSH1 0x4 DUP1 CALLDATASIZE SUB DUP2 ADD SWAP1 PUSH2 0xE7 SWAP2 SWAP1 PUSH2 0x968 JUMP JUMPDEST PUSH2 0x3C7 JUMP JUMPDEST STOP JUMPDEST PUSH2 0xF6 PUSH2 0x44D JUMP JUMPDEST PUSH2 0x100 PUSH1 0x0 PUSH2 0x4D4 JUMP JUMPDEST JUMP JUMPDEST PUSH1 0x0 PUSH1 0x60 PUSH1 0x0 DUP1 PUSH1 0x1 PUSH1 0x0 DUP7 DUP2 MSTORE PUSH1 0x20 ADD SWAP1 DUP2 MSTORE PUSH1 0x20 ADD PUSH1 0x0 KECCAK256 PUSH1 0x40 MLOAD DUP1 PUSH1 0x60 ADD PUSH1 0x40 MSTORE SWAP1 DUP2 PUSH1 0x0 DUP3 ADD PUSH1 0x0 SWAP1 SLOAD SWAP1 PUSH2 0x100 EXP SWAP1 DIV PUSH1 0xFF AND PUSH1 0xFF AND PUSH1 0xFF AND DUP2 MSTORE PUSH1 0x20 ADD PUSH1 0x1 DUP3 ADD DUP1 SLOAD PUSH2 0x154 SWAP1 PUSH2 0x9C4 JUMP JUMPDEST DUP1 PUSH1 0x1F ADD PUSH1 0x20 DUP1 SWAP2 DIV MUL PUSH1 0x20 ADD PUSH1 0x40 MLOAD SWAP1 DUP2 ADD PUSH1 0x40 MSTORE DUP1 SWAP3 SWAP2 SWAP1 DUP2 DUP2 MSTORE PUSH1 0x20 ADD DUP3 DUP1 SLOAD PUSH2 0x180 SWAP1 PUSH2 0x9C4 JUMP JUMPDEST DUP1 ISZERO PUSH2 0x1CD JUMPI DUP1 PUSH1 0x1F LT PUSH2 0x1A2 JUMPI PUSH2 0x100 DUP1 DUP4 SLOAD DIV MUL DUP4 MSTORE SWAP2 PUSH1 0x20 ADD SWAP2 PUSH2 0x1CD JUMP JUMPDEST DUP3 ADD SWAP2 SWAP1 PUSH1 0x0 MSTORE PUSH1 0x20 PUSH1 0x0 KECCAK256 SWAP1 JUMPDEST DUP2 SLOAD DUP2 MSTORE SWAP1 PUSH1 0x1 ADD SWAP1 PUSH1 0x20 ADD DUP1 DUP4 GT PUSH2 0x1B0 JUMPI DUP3 SWAP1 SUB PUSH1 0x1F AND DUP3 ADD SWAP2 JUMPDEST POP POP POP POP POP DUP2 MSTORE PUSH1 0x20 ADD PUSH1 0x2 DUP3 ADD SLOAD DUP2 MSTORE POP POP SWAP1 POP PUSH1 0x0 DUP2 PUSH1 0x40 ADD MLOAD SUB PUSH2 0x229 JUMPI PUSH1 0x40 MLOAD PUSH32 0x8C379A000000000000000000000000000000000000000000000000000000000 DUP2 MSTORE PUSH1 0x4 ADD PUSH2 0x220 SWAP1 PUSH2 0xA67 JUMP JUMPDEST PUSH1 0x40 MLOAD DUP1 SWAP2 SUB SWAP1 REVERT JUMPDEST DUP1 PUSH1 0x0 ADD MLOAD DUP2 PUSH1 0x20 ADD MLOAD DUP3 PUSH1 0x40 ADD MLOAD SWAP4 POP SWAP4 POP SWAP4 POP POP SWAP2 SWAP4 SWAP1 SWAP3 POP JUMP JUMPDEST PUSH1 0x0 DUP1 PUSH1 0x0 SWAP1 SLOAD SWAP1 PUSH2 0x100 EXP SWAP1 DIV PUSH20 0xFFFFFFFFFFFFFFFFFFFFFFFFFFFFFFFFFFFFFFFF AND SWAP1 POP SWAP1 JUMP JUMPDEST PUSH2 0x277 PUSH2 0x44D JUMP JUMPDEST PUSH1 0x0 DUP3 PUSH1 0xFF AND GT DUP1 ISZERO PUSH2 0x28E JUMPI POP PUSH1 0x5 DUP3 PUSH1 0xFF AND GT ISZERO JUMPDEST PUSH2 0x2CD JUMPI PUSH1 0x40 MLOAD PUSH32 0x8C379A000000000000000000000000000000000000000000000000000000000 DUP2 MSTORE PUSH1 0x4 ADD PUSH2 0x2C4 SWAP1 PUSH2 0xAD3 JUMP JUMPDEST PUSH1 0x40 MLOAD DUP1 SWAP2 SUB SWAP1 REVERT JUMPDEST PUSH1 0x0 DUP2 MLOAD GT PUSH2 0x311 JUMPI PUSH1 0x40 MLOAD PUSH32 0x8C379A000000000000000000000000000000000000000000000000000000000 DUP2 MSTORE PUSH1 0x4 ADD PUSH2 0x308 SWAP1 PUSH2 0xB3F JUMP JUMPDEST PUSH1 0x40 MLOAD DUP1 SWAP2 SUB SWAP1 REVERT JUMPDEST PUSH1 0x40 MLOAD DUP1 PUSH1 0x60 ADD PUSH1 0x40 MSTORE DUP1 DUP4 PUSH1 0xFF AND DUP2 MSTORE PUSH1 0x20 ADD DUP3 DUP2 MSTORE PUSH1 0x20 ADD TIMESTAMP DUP2 MSTORE POP PUSH1 0x1 PUSH1 0x0 DUP6 DUP2 MSTORE PUSH1 0x20 ADD SWAP1 DUP2 MSTORE PUSH1 0x20 ADD PUSH1 0x0 KECCAK256 PUSH1 0x0 DUP3 ADD MLOAD DUP2 PUSH1 0x0 ADD PUSH1 0x0 PUSH2 0x100 EXP DUP2 SLOAD DUP2 PUSH1 0xFF MUL NOT AND SWAP1 DUP4 PUSH1 0xFF AND MUL OR SWAP1 SSTORE POP PUSH1 0x20 DUP3 ADD MLOAD DUP2 PUSH1 0x1 ADD SWAP1 DUP2 PUSH2 0x378 SWAP2 SWAP1 PUSH2 0xD0B JUMP JUMPDEST POP PUSH1 0x40 DUP3 ADD MLOAD DUP2 PUSH1 0x2 ADD SSTORE SWAP1 POP POP DUP3 PUSH32 0xB2E582D3DD8CD563806256A135E184776C6ED04DABB1464411648ACB07E0CBFE DUP4 DUP4 TIMESTAMP PUSH1 0x40 MLOAD PUSH2 0x3BA SWAP4 SWAP3 SWAP2 SWAP1 PUSH2 0x6D2 JUMP JUMPDEST PUSH1 0x40 MLOAD DUP1 SWAP2 SUB SWAP1 LOG2 POP POP POP JUMP JUMPDEST PUSH2 0x3CF PUSH2 0x44D JUMP JUMPDEST PUSH1 0x0 PUSH20 0xFFFFFFFFFFFFFFFFFFFFFFFFFFFFFFFFFFFFFFFF AND DUP2 PUSH20 0xFFFFFFFFFFFFFFFFFFFFFFFFFFFFFFFFFFFFFFFF AND SUB PUSH2 0x441 JUMPI PUSH1 0x0 PUSH1 0x40 MLOAD PUSH32 0x1E4FBDF700000000000000000000000000000000000000000000000000000000 DUP2 MSTORE PUSH1 0x4 ADD PUSH2 0x438 SWAP2 SWAP1 PUSH2 0x751 JUMP JUMPDEST PUSH1 0x40 MLOAD DUP1 SWAP2 SUB SWAP1 REVERT JUMPDEST PUSH2 0x44A DUP2 PUSH2 0x4D4 JUMP JUMPDEST POP JUMP JUMPDEST PUSH2 0x455 PUSH2 0x598 JUMP JUMPDEST PUSH20 0xFFFFFFFFFFFFFFFFFFFFFFFFFFFFFFFFFFFFFFFF AND PUSH2 0x473 PUSH2 0x246 JUMP JUMPDEST PUSH20 0xFFFFFFFFFFFFFFFFFFFFFFFFFFFFFFFFFFFFFFFF AND EQ PUSH2 0x4D2 JUMPI PUSH2 0x496 PUSH2 0x598 JUMP JUMPDEST PUSH1 0x40 MLOAD PUSH32 0x118CDAA700000000000000000000000000000000000000000000000000000000 DUP2 MSTORE PUSH1 0x4 ADD PUSH2 0x4C9 SWAP2 SWAP1 PUSH2 0x751 JUMP JUMPDEST PUSH1 0x40 MLOAD DUP1 SWAP2 SUB SWAP1 REVERT JUMPDEST JUMP JUMPDEST PUSH1 0x0 DUP1 PUSH1 0x0 SWAP1 SLOAD SWAP1 PUSH2 0x100 EXP SWAP1 DIV PUSH20 0xFFFFFFFFFFFFFFFFFFFFFFFFFFFFFFFFFFFFFFFF AND SWAP1 POP DUP2 PUSH1 0x0 DUP1 PUSH2 0x100 EXP DUP2 SLOAD DUP2 PUSH20 0xFFFFFFFFFFFFFFFFFFFFFFFFFFFFFFFFFFFFFFFF MUL NOT AND SWAP1 DUP4 PUSH20 0xFFFFFFFFFFFFFFFFFFFFFFFFFFFFFFFFFFFFFFFF AND MUL OR SWAP1 SSTORE POP DUP2 PUSH20 0xFFFFFFFFFFFFFFFFFFFFFFFFFFFFFFFFFFFFFFFF AND DUP2 PUSH20 0xFFFFFFFFFFFFFFFFFFFFFFFFFFFFFFFFFFFFFFFF AND PUSH32 0x8BE0079C531659141344CD1FD0A4F28419497F9722A3DAAFE3B4186F6B6457E0 PUSH1 0x40 MLOAD PUSH1 0x40 MLOAD DUP1 SWAP2 SUB SWAP1 LOG3 POP POP JUMP JUMPDEST PUSH1 0x0 CALLER SWAP1 POP SWAP1 JUMP JUMPDEST PUSH1 0x0 PUSH1 0x40 MLOAD SWAP1 POP SWAP1 JUMP JUMPDEST PUSH1 0x0 DUP1 REVERT JUMPDEST PUSH1 0x0 DUP1 REVERT JUMPDEST PUSH1 0x0 DUP2 SWAP1 POP SWAP2 SWAP1 POP JUMP JUMPDEST PUSH2 0x5C7 DUP2 PUSH2 0x5B4 JUMP JUMPDEST DUP2 EQ PUSH2 0x5D2 JUMPI PUSH1 0x0 DUP1 REVERT JUMPDEST POP JUMP JUMPDEST PUSH1 0x0 DUP2 CALLDATALOAD SWAP1 POP PUSH2 0x5E4 DUP2 PUSH2 0x5BE JUMP JUMPDEST SWAP3 SWAP2 POP POP JUMP JUMPDEST PUSH1 0x0 PUSH1 0x20 DUP3 DUP5 SUB SLT ISZERO PUSH2 0x600 JUMPI PUSH2 0x5FF PUSH2 0x5AA JUMP JUMPDEST JUMPDEST PUSH1 0x0 PUSH2 0x60E DUP5 DUP3 DUP6 ADD PUSH2 0x5D5 JUMP JUMPDEST SWAP2 POP POP SWAP3 SWAP2 POP POP JUMP JUMPDEST PUSH1 0x0 PUSH1 0xFF DUP3 AND SWAP1 POP SWAP2 SWAP1 POP JUMP JUMPDEST PUSH2 0x62D DUP2 PUSH2 0x617 JUMP JUMPDEST DUP3 MSTORE POP POP JUMP JUMPDEST PUSH1 0x0 DUP2 MLOAD SWAP1 POP SWAP2 SWAP1 POP JUMP JUMPDEST PUSH1 0x0 DUP3 DUP3 MSTORE PUSH1 0x20 DUP3 ADD SWAP1 POP SWAP3 SWAP2 POP POP JUMP JUMPDEST PUSH1 0x0 JUMPDEST DUP4 DUP2 LT ISZERO PUSH2 0x66D JUMPI DUP1 DUP3 ADD MLOAD DUP2 DUP5 ADD MSTORE PUSH1 0x20 DUP2 ADD SWAP1 POP PUSH2 0x652 JUMP JUMPDEST PUSH1 0x0 DUP5 DUP5 ADD MSTORE POP POP POP POP JUMP JUMPDEST PUSH1 0x0 PUSH1 0x1F NOT PUSH1 0x1F DUP4 ADD AND SWAP1 POP SWAP2 SWAP1 POP JUMP JUMPDEST PUSH1 0x0 PUSH2 0x695 DUP3 PUSH2 0x633 JUMP JUMPDEST PUSH2 0x69F DUP2 DUP6 PUSH2 0x63E JUMP JUMPDEST SWAP4 POP PUSH2 0x6AF DUP2 DUP6 PUSH1 0x20 DUP7 ADD PUSH2 0x64F JUMP JUMPDEST PUSH2 0x6B8 DUP2 PUSH2 0x679 JUMP JUMPDEST DUP5 ADD SWAP2 POP POP SWAP3 SWAP2 POP POP JUMP JUMPDEST PUSH2 0x6CC DUP2 PUSH2 0x5B4 JUMP JUMPDEST DUP3 MSTORE POP POP JUMP JUMPDEST PUSH1 0x0 PUSH1 0x60 DUP3 ADD SWAP1 POP PUSH2 0x6E7 PUSH1 0x0 DUP4 ADD DUP7 PUSH2 0x624 JUMP JUMPDEST DUP2 DUP2 SUB PUSH1 0x20 DUP4 ADD MSTORE PUSH2 0x6F9 DUP2 DUP6 PUSH2 0x68A JUMP JUMPDEST SWAP1 POP PUSH2 0x708 PUSH1 0x40 DUP4 ADD DUP5 PUSH2 0x6C3 JUMP JUMPDEST SWAP5 SWAP4 POP POP POP POP JUMP JUMPDEST PUSH1 0x0 PUSH20 0xFFFFFFFFFFFFFFFFFFFFFFFFFFFFFFFFFFFFFFFF DUP3 AND SWAP1 POP SWAP2 SWAP1 POP JUMP JUMPDEST PUSH1 0x0 PUSH2 0x73B DUP3 PUSH2 0x710 JUMP JUMPDEST SWAP1 POP SWAP2 SWAP1 POP JUMP JUMPDEST PUSH2 0x74B DUP2 PUSH2 0x730 JUMP JUMPDEST DUP3 MSTORE POP POP JUMP JUMPDEST PUSH1 0x0 PUSH1 0x20 DUP3 ADD SWAP1 POP PUSH2 0x766 PUSH1 0x0 DUP4 ADD DUP5 PUSH2 0x742 JUMP JUMPDEST SWAP3 SWAP2 POP POP JUMP JUMPDEST PUSH2 0x775 DUP2 PUSH2 0x617 JUMP JUMPDEST DUP2 EQ PUSH2 0x780 JUMPI PUSH1 0x0 DUP1 REVERT JUMPDEST POP JUMP JUMPDEST PUSH1 0x0 DUP2 CALLDATALOAD SWAP1 POP PUSH2 0x792 DUP2 PUSH2 0x76C JUMP JUMPDEST SWAP3 SWAP2 POP POP JUMP JUMPDEST PUSH1 0x0 DUP1 REVERT JUMPDEST PUSH1 0x0 DUP1 REVERT JUMPDEST PUSH32 0x4E487B7100000000000000000000000000000000000000000000000000000000 PUSH1 0x0 MSTORE PUSH1 0x41 PUSH1 0x4 MSTORE PUSH1 0x24 PUSH1 0x0 REVERT JUMPDEST PUSH2 0x7DA DUP3 PUSH2 0x679 JUMP JUMPDEST DUP2 ADD DUP2 DUP2 LT PUSH8 0xFFFFFFFFFFFFFFFF DUP3 GT OR ISZERO PUSH2 0x7F9 JUMPI PUSH2 0x7F8 PUSH2 0x7A2 JUMP JUMPDEST JUMPDEST DUP1 PUSH1 0x40 MSTORE POP POP POP JUMP JUMPDEST PUSH1 0x0 PUSH2 0x80C PUSH2 0x5A0 JUMP JUMPDEST SWAP1 POP PUSH2 0x818 DUP3 DUP3 PUSH2 0x7D1 JUMP JUMPDEST SWAP2 SWAP1 POP JUMP JUMPDEST PUSH1 0x0 PUSH8 0xFFFFFFFFFFFFFFFF DUP3 GT ISZERO PUSH2 0x838 JUMPI PUSH2 0x837 PUSH2 0x7A2 JUMP JUMPDEST JUMPDEST PUSH2 0x841 DUP3 PUSH2 0x679 JUMP JUMPDEST SWAP1 POP PUSH1 0x20 DUP2 ADD SWAP1 POP SWAP2 SWAP1 POP JUMP JUMPDEST DUP3 DUP2 DUP4 CALLDATACOPY PUSH1 0x0 DUP4 DUP4 ADD MSTORE POP POP POP JUMP JUMPDEST PUSH1 0x0 PUSH2 0x870 PUSH2 0x86B DUP5 PUSH2 0x81D JUMP JUMPDEST PUSH2 0x802 JUMP JUMPDEST SWAP1 POP DUP3 DUP2 MSTORE PUSH1 0x20 DUP2 ADD DUP5 DUP5 DUP5 ADD GT ISZERO PUSH2 0x88C JUMPI PUSH2 0x88B PUSH2 0x79D JUMP JUMPDEST JUMPDEST PUSH2 0x897 DUP5 DUP3 DUP6 PUSH2 0x84E JUMP JUMPDEST POP SWAP4 SWAP3 POP POP POP JUMP JUMPDEST PUSH1 0x0 DUP3 PUSH1 0x1F DUP4 ADD SLT PUSH2 0x8B4 JUMPI PUSH2 0x8B3 PUSH2 0x798 JUMP JUMPDEST JUMPDEST DUP2 CALLDATALOAD PUSH2 0x8C4 DUP5 DUP3 PUSH1 0x20 DUP7 ADD PUSH2 0x85D JUMP JUMPDEST SWAP2 POP POP SWAP3 SWAP2 POP POP JUMP JUMPDEST PUSH1 0x0 DUP1 PUSH1 0x0 PUSH1 0x60 DUP5 DUP7 SUB SLT ISZERO PUSH2 0x8E6 JUMPI PUSH2 0x8E5 PUSH2 0x5AA JUMP JUMPDEST JUMPDEST PUSH1 0x0 PUSH2 0x8F4 DUP7 DUP3 DUP8 ADD PUSH2 0x5D5 JUMP JUMPDEST SWAP4 POP POP PUSH1 0x20 PUSH2 0x905 DUP7 DUP3 DUP8 ADD PUSH2 0x783 JUMP JUMPDEST SWAP3 POP POP PUSH1 0x40 DUP5 ADD CALLDATALOAD PUSH8 0xFFFFFFFFFFFFFFFF DUP2 GT ISZERO PUSH2 0x926 JUMPI PUSH2 0x925 PUSH2 0x5AF JUMP JUMPDEST JUMPDEST PUSH2 0x932 DUP7 DUP3 DUP8 ADD PUSH2 0x89F JUMP JUMPDEST SWAP2 POP POP SWAP3 POP SWAP3 POP SWAP3 JUMP JUMPDEST PUSH2 0x945 DUP2 PUSH2 0x730 JUMP JUMPDEST DUP2 EQ PUSH2 0x950 JUMPI PUSH1 0x0 DUP1 REVERT JUMPDEST POP JUMP JUMPDEST PUSH1 0x0 DUP2 CALLDATALOAD SWAP1 POP PUSH2 0x962 DUP2 PUSH2 0x93C JUMP JUMPDEST SWAP3 SWAP2 POP POP JUMP JUMPDEST PUSH1 0x0 PUSH1 0x20 DUP3 DUP5 SUB SLT ISZERO PUSH2 0x97E JUMPI PUSH2 0x97D PUSH2 0x5AA JUMP JUMPDEST JUMPDEST PUSH1 0x0 PUSH2 0x98C DUP5 DUP3 DUP6 ADD PUSH2 0x953 JUMP JUMPDEST SWAP2 POP POP SWAP3 SWAP2 POP POP JUMP JUMPDEST PUSH32 0x4E487B7100000000000000000000000000000000000000000000000000000000 PUSH1 0x0 MSTORE PUSH1 0x22 PUSH1 0x4 MSTORE PUSH1 0x24 PUSH1 0x0 REVERT JUMPDEST PUSH1 0x0 PUSH1 0x2 DUP3 DIV SWAP1 POP PUSH1 0x1 DUP3 AND DUP1 PUSH2 0x9DC JUMPI PUSH1 0x7F DUP3 AND SWAP2 POP JUMPDEST PUSH1 0x20 DUP3 LT DUP2 SUB PUSH2 0x9EF JUMPI PUSH2 0x9EE PUSH2 0x995 JUMP JUMPDEST JUMPDEST POP SWAP2 SWAP1 POP JUMP JUMPDEST PUSH32 0x4E6F2072657075746174696F6E206461746120617661696C61626C6520666F72 PUSH1 0x0 DUP3 ADD MSTORE PUSH32 0x207468697320746F6B656E000000000000000000000000000000000000000000 PUSH1 0x20 DUP3 ADD MSTORE POP JUMP JUMPDEST PUSH1 0x0 PUSH2 0xA51 PUSH1 0x2B DUP4 PUSH2 0x63E JUMP JUMPDEST SWAP2 POP PUSH2 0xA5C DUP3 PUSH2 0x9F5 JUMP JUMPDEST PUSH1 0x40 DUP3 ADD SWAP1 POP SWAP2 SWAP1 POP JUMP JUMPDEST PUSH1 0x0 PUSH1 0x20 DUP3 ADD SWAP1 POP DUP2 DUP2 SUB PUSH1 0x0 DUP4 ADD MSTORE PUSH2 0xA80 DUP2 PUSH2 0xA44 JUMP JUMPDEST SWAP1 POP SWAP2 SWAP1 POP JUMP JUMPDEST PUSH32 0x526174696E67206D757374206265206265747765656E203120616E6420350000 PUSH1 0x0 DUP3 ADD MSTORE POP JUMP JUMPDEST PUSH1 0x0 PUSH2 0xABD PUSH1 0x1E DUP4 PUSH2 0x63E JUMP JUMPDEST SWAP2 POP PUSH2 0xAC8 DUP3 PUSH2 0xA87 JUMP JUMPDEST PUSH1 0x20 DUP3 ADD SWAP1 POP SWAP2 SWAP1 POP JUMP JUMPDEST PUSH1 0x0 PUSH1 0x20 DUP3 ADD SWAP1 POP DUP2 DUP2 SUB PUSH1 0x0 DUP4 ADD MSTORE PUSH2 0xAEC DUP2 PUSH2 0xAB0 JUMP JUMPDEST SWAP1 POP SWAP2 SWAP1 POP JUMP JUMPDEST PUSH32 0x576F726B20486973746F7279205552492063616E6E6F7420626520656D707479 PUSH1 0x0 DUP3 ADD MSTORE POP JUMP JUMPDEST PUSH1 0x0 PUSH2 0xB29 PUSH1 0x20 DUP4 PUSH2 0x63E JUMP JUMPDEST SWAP2 POP PUSH2 0xB34 DUP3 PUSH2 0xAF3 JUMP JUMPDEST PUSH1 0x20 DUP3 ADD SWAP1 POP SWAP2 SWAP1 POP JUMP JUMPDEST PUSH1 0x0 PUSH1 0x20 DUP3 ADD SWAP1 POP DUP2 DUP2 SUB PUSH1 0x0 DUP4 ADD MSTORE PUSH2 0xB58 DUP2 PUSH2 0xB1C JUMP JUMPDEST SWAP1 POP SWAP2 SWAP1 POP JUMP JUMPDEST PUSH1 0x0 DUP2 SWAP1 POP DUP2 PUSH1 0x0 MSTORE PUSH1 0x20 PUSH1 0x0 KECCAK256 SWAP1 POP SWAP2 SWAP1 POP JUMP JUMPDEST PUSH1 0x0 PUSH1 0x20 PUSH1 0x1F DUP4 ADD DIV SWAP1 POP SWAP2 SWAP1 POP JUMP JUMPDEST PUSH1 0x0 DUP3 DUP3 SHL SWAP1 POP SWAP3 SWAP2 POP POP JUMP JUMPDEST PUSH1 0x0 PUSH1 0x8 DUP4 MUL PUSH2 0xBC1 PUSH32 0xFFFFFFFFFFFFFFFFFFFFFFFFFFFFFFFFFFFFFFFFFFFFFFFFFFFFFFFFFFFFFFFF DUP3 PUSH2 0xB84 JUMP JUMPDEST PUSH2 0xBCB DUP7 DUP4 PUSH2 0xB84 JUMP JUMPDEST SWAP6 POP DUP1 NOT DUP5 AND SWAP4 POP DUP1 DUP7 AND DUP5 OR SWAP3 POP POP POP SWAP4 SWAP3 POP POP POP JUMP JUMPDEST PUSH1 0x0 DUP2 SWAP1 POP SWAP2 SWAP1 POP JUMP JUMPDEST PUSH1 0x0 PUSH2 0xC08 PUSH2 0xC03 PUSH2 0xBFE DUP5 PUSH2 0x5B4 JUMP JUMPDEST PUSH2 0xBE3 JUMP JUMPDEST PUSH2 0x5B4 JUMP JUMPDEST SWAP1 POP SWAP2 SWAP1 POP JUMP JUMPDEST PUSH1 0x0 DUP2 SWAP1 POP SWAP2 SWAP1 POP JUMP JUMPDEST PUSH2 0xC22 DUP4 PUSH2 0xBED JUMP JUMPDEST PUSH2 0xC36 PUSH2 0xC2E DUP3 PUSH2 0xC0F JUMP JUMPDEST DUP5 DUP5 SLOAD PUSH2 0xB91 JUMP JUMPDEST DUP3 SSTORE POP POP POP POP JUMP JUMPDEST PUSH1 0x0 SWAP1 JUMP JUMPDEST PUSH2 0xC4B PUSH2 0xC3E JUMP JUMPDEST PUSH2 0xC56 DUP2 DUP5 DUP5 PUSH2 0xC19 JUMP JUMPDEST POP POP POP JUMP JUMPDEST JUMPDEST DUP2 DUP2 LT ISZERO PUSH2 0xC7A JUMPI PUSH2 0xC6F PUSH1 0x0 DUP3 PUSH2 0xC43 JUMP JUMPDEST PUSH1 0x1 DUP2 ADD SWAP1 POP PUSH2 0xC5C JUMP JUMPDEST POP POP JUMP JUMPDEST PUSH1 0x1F DUP3 GT ISZERO PUSH2 0xCBF JUMPI PUSH2 0xC90 DUP2 PUSH2 0xB5F JUMP JUMPDEST PUSH2 0xC99 DUP5 PUSH2 0xB74 JUMP JUMPDEST DUP2 ADD PUSH1 0x20 DUP6 LT ISZERO PUSH2 0xCA8 JUMPI DUP2 SWAP1 POP JUMPDEST PUSH2 0xCBC PUSH2 0xCB4 DUP6 PUSH2 0xB74 JUMP JUMPDEST DUP4 ADD DUP3 PUSH2 0xC5B JUMP JUMPDEST POP POP JUMPDEST POP POP POP JUMP JUMPDEST PUSH1 0x0 DUP3 DUP3 SHR SWAP1 POP SWAP3 SWAP2 POP POP JUMP JUMPDEST PUSH1 0x0 PUSH2 0xCE2 PUSH1 0x0 NOT DUP5 PUSH1 0x8 MUL PUSH2 0xCC4 JUMP JUMPDEST NOT DUP1 DUP4 AND SWAP2 POP POP SWAP3 SWAP2 POP POP JUMP JUMPDEST PUSH1 0x0 PUSH2 0xCFB DUP4 DUP4 PUSH2 0xCD1 JUMP JUMPDEST SWAP2 POP DUP3 PUSH1 0x2 MUL DUP3 OR SWAP1 POP SWAP3 SWAP2 POP POP JUMP JUMPDEST PUSH2 0xD14 DUP3 PUSH2 0x633 JUMP JUMPDEST PUSH8 0xFFFFFFFFFFFFFFFF DUP2 GT ISZERO PUSH2 0xD2D JUMPI PUSH2 0xD2C PUSH2 0x7A2 JUMP JUMPDEST JUMPDEST PUSH2 0xD37 DUP3 SLOAD PUSH2 0x9C4 JUMP JUMPDEST PUSH2 0xD42 DUP3 DUP3 DUP6 PUSH2 0xC7E JUMP JUMPDEST PUSH1 0x0 PUSH1 0x20 SWAP1 POP PUSH1 0x1F DUP4 GT PUSH1 0x1 DUP2 EQ PUSH2 0xD75 JUMPI PUSH1 0x0 DUP5 ISZERO PUSH2 0xD63 JUMPI DUP3 DUP8 ADD MLOAD SWAP1 POP JUMPDEST PUSH2 0xD6D DUP6 DUP3 PUSH2 0xCEF JUMP JUMPDEST DUP7 SSTORE POP PUSH2 0xDD5 JUMP JUMPDEST PUSH1 0x1F NOT DUP5 AND PUSH2 0xD83 DUP7 PUSH2 0xB5F JUMP JUMPDEST PUSH1 0x0 JUMPDEST DUP3 DUP2 LT ISZERO PUSH2 0xDAB JUMPI DUP5 DUP10 ADD MLOAD DUP3 SSTORE PUSH1 0x1 DUP3 ADD SWAP2 POP PUSH1 0x20 DUP6 ADD SWAP5 POP PUSH1 0x20 DUP2 ADD SWAP1 POP PUSH2 0xD86 JUMP JUMPDEST DUP7 DUP4 LT ISZERO PUSH2 0xDC8 JUMPI DUP5 DUP10 ADD MLOAD PUSH2 0xDC4 PUSH1 0x1F DUP10 AND DUP3 PUSH2 0xCD1 JUMP JUMPDEST DUP4 SSTORE POP JUMPDEST PUSH1 0x1 PUSH1 0x2 DUP9 MUL ADD DUP9 SSTORE POP POP POP JUMPDEST POP POP POP POP POP POP JUMP INVALID LOG2 PUSH5 0x6970667358 0x22 SLT KECCAK256 EXP 0xE5 NOT 0xCA PUSH21 0x41E1638553CCF06D7A69131E5B1D9FE3DBF989A521 0xC3 SWAP14 0xC8 DUP2 PUSH5 0x1664736F6C PUSH4 0x43000814 STOP CALLER "},"methodIdentifiers":{"getReputation(uint256)":"89370d8b","owner()":"8da5cb5b","renounceOwnership()":"715018a6","transferOwnership(address)":"f2fde38b","updateReputation(uint256,uint8,string)":"97ae1879"}}}}}