{
  "_format": "hh-sol-artifact-1",
  "contractName": "SBT",
  "sourceName": "contracts/SBT.sol",
  "abi": [
    {
      "inputs": [],
      "stateMutability": "nonpayable",
      "type": "constructor"
    },
    {
      "inputs": [
        {
          "internalType": "address",
          "name": "sender",
          "type": "address"
        },
        {
          "internalType": "uint256",
          "name": "tokenId",
          "type": "uint256"
        },
        {
          "internalType": "address",
          "name": "owner",
          "type": "address"
        }
      ],
      "name": "ERC721IncorrectOwner",
      "type": "error"
    },
    {
      "inputs": [
        {
          "internalType": "address",
          "name": "operator",
          "type": "address"
        },
        {
          "internalType": "uint256",
          "name": "tokenId",
          "type": "uint256"
        }
      ],
      "name": "ERC721InsufficientApproval",
      "type": "error"
    },
    {
      "inputs": [
        {
          "internalType": "address",
          "name": "approver",
          "type": "address"
        }
      ],
      "name": "ERC721InvalidApprover",
      "type": "error"
    },
    {
      "inputs": [
        {
          "internalType": "address",
          "name": "operator",
          "type": "address"
        }
      ],
      "name": "ERC721InvalidOperator",
      "type": "error"
    },
    {
      "inputs": [
        {
          "internalType": "address",
          "name": "owner",
          "type": "address"
        }
      ],
      "name": "ERC721InvalidOwner",
      "type": "error"
    },
    {
      "inputs": [
        {
          "internalType": "address",
          "name": "receiver",
          "type": "address"
        }
      ],
      "name": "ERC721InvalidReceiver",
      "type": "error"
    },
    {
      "inputs": [
        {
          "internalType": "address",
          "name": "sender",
          "type": "address"
        }
      ],
      "name": "ERC721InvalidSender",
      "type": "error"
    },
    {
      "inputs": [
        {
          "internalType": "uint256",
          "name": "tokenId",
          "type": "uint256"
        }
      ],
      "name": "ERC721NonexistentToken",
      "type": "error"
    },
    {
      "inputs": [
        {
          "internalType": "address",
          "name": "owner",
          "type": "address"
        }
      ],
      "name": "OwnableInvalidOwner",
      "type": "error"
    },
    {
      "inputs": [
        {
          "internalType": "address",
          "name": "account",
          "type": "address"
        }
      ],
      "name": "OwnableUnauthorizedAccount",
      "type": "error"
    },
    {
      "anonymous": false,
      "inputs": [
        {
          "indexed": true,
          "internalType": "address",
          "name": "owner",
          "type": "address"
        },
        {
          "indexed": true,
          "internalType": "address",
          "name": "approved",
          "type": "address"
        },
        {
          "indexed": true,
          "internalType": "uint256",
          "name": "tokenId",
          "type": "uint256"
        }
      ],
      "name": "Approval",
      "type": "event"
    },
    {
      "anonymous": false,
      "inputs": [
        {
          "indexed": true,
          "internalType": "address",
          "name": "owner",
          "type": "address"
        },
        {
          "indexed": true,
          "internalType": "address",
          "name": "operator",
          "type": "address"
        },
        {
          "indexed": false,
          "internalType": "bool",
          "name": "approved",
          "type": "bool"
        }
      ],
      "name": "ApprovalForAll",
      "type": "event"
    },
    {
      "anonymous": false,
      "inputs": [
        {
          "indexed": true,
          "internalType": "address",
          "name": "previousOwner",
          "type": "address"
        },
        {
          "indexed": true,
          "internalType": "address",
          "name": "newOwner",
          "type": "address"
        }
      ],
      "name": "OwnershipTransferred",
      "type": "event"
    },
    {
      "anonymous": false,
      "inputs": [
        {
          "indexed": false,
          "internalType": "string",
          "name": "did",
          "type": "string"
        },
        {
          "indexed": false,
          "internalType": "uint256",
          "name": "tokenId",
          "type": "uint256"
        }
      ],
      "name": "SBTMinted",
      "type": "event"
    },
    {
      "anonymous": false,
      "inputs": [
        {
          "indexed": false,
          "internalType": "uint256",
          "name": "tokenId",
          "type": "uint256"
        },
        {
          "indexed": false,
          "internalType": "string",
          "name": "did",
          "type": "string"
        }
      ],
      "name": "SBTRevoked",
      "type": "event"
    },
    {
      "anonymous": false,
      "inputs": [
        {
          "indexed": false,
          "internalType": "uint256",
          "name": "tokenId",
          "type": "uint256"
        }
      ],
      "name": "SBTUpdated",
      "type": "event"
    },
    {
      "anonymous": false,
      "inputs": [
        {
          "indexed": true,
          "internalType": "address",
          "name": "from",
          "type": "address"
        },
        {
          "indexed": true,
          "internalType": "address",
          "name": "to",
          "type": "address"
        },
        {
          "indexed": true,
          "internalType": "uint256",
          "name": "tokenId",
          "type": "uint256"
        }
      ],
      "name": "Transfer",
      "type": "event"
    },
    {
      "inputs": [
        {
          "internalType": "address",
          "name": "to",
          "type": "address"
        },
        {
          "internalType": "uint256",
          "name": "tokenId",
          "type": "uint256"
        }
      ],
      "name": "approve",
      "outputs": [],
      "stateMutability": "nonpayable",
      "type": "function"
    },
    {
      "inputs": [
        {
          "internalType": "address",
          "name": "owner",
          "type": "address"
        }
      ],
      "name": "balanceOf",
      "outputs": [
        {
          "internalType": "uint256",
          "name": "",
          "type": "uint256"
        }
      ],
      "stateMutability": "view",
      "type": "function"
    },
    {
      "inputs": [
        {
          "internalType": "uint256",
          "name": "",
          "type": "uint256"
        }
      ],
      "name": "didOfToken",
      "outputs": [
        {
          "internalType": "string",
          "name": "",
          "type": "string"
        }
      ],
      "stateMutability": "view",
      "type": "function"
    },
    {
      "inputs": [
        {
          "internalType": "uint256",
          "name": "tokenId",
          "type": "uint256"
        }
      ],
      "name": "getApproved",
      "outputs": [
        {
          "internalType": "address",
          "name": "",
          "type": "address"
        }
      ],
      "stateMutability": "view",
      "type": "function"
    },
    {
      "inputs": [
        {
          "internalType": "address",
          "name": "owner",
          "type": "address"
        },
        {
          "internalType": "address",
          "name": "operator",
          "type": "address"
        }
      ],
      "name": "isApprovedForAll",
      "outputs": [
        {
          "internalType": "bool",
          "name": "",
          "type": "bool"
        }
      ],
      "stateMutability": "view",
      "type": "function"
    },
    {
      "inputs": [
        {
          "internalType": "string",
          "name": "did",
          "type": "string"
        },
        {
          "components": [
            {
              "internalType": "string[]",
              "name": "skills",
              "type": "string[]"
            },
            {
              "internalType": "uint256",
              "name": "experience",
              "type": "uint256"
            },
            {
              "internalType": "uint8",
              "name": "rating",
              "type": "uint8"
            },
            {
              "internalType": "uint256",
              "name": "lastUpdated",
              "type": "uint256"
            },
            {
              "internalType": "string",
              "name": "externalDataURI",
              "type": "string"
            }
          ],
          "internalType": "struct SBT.Metadata",
          "name": "metadata",
          "type": "tuple"
        }
      ],
      "name": "mintSBT",
      "outputs": [
        {
          "internalType": "uint256",
          "name": "tokenId",
          "type": "uint256"
        }
      ],
      "stateMutability": "nonpayable",
      "type": "function"
    },
    {
      "inputs": [
        {
          "internalType": "string",
          "name": "did",
          "type": "string"
        },
        {
          "internalType": "string[]",
          "name": "skills",
          "type": "string[]"
        },
        {
          "internalType": "uint256",
          "name": "experience",
          "type": "uint256"
        },
        {
          "internalType": "uint8",
          "name": "rating",
          "type": "uint8"
        },
        {
          "internalType": "uint256",
          "name": "lastUpdated",
          "type": "uint256"
        },
        {
          "internalType": "string",
          "name": "externalDataURI",
          "type": "string"
        }
      ],
      "name": "mintSBT2",
      "outputs": [
        {
          "internalType": "uint256",
          "name": "tokenId",
          "type": "uint256"
        }
      ],
      "stateMutability": "nonpayable",
      "type": "function"
    },
    {
      "inputs": [],
      "name": "name",
      "outputs": [
        {
          "internalType": "string",
          "name": "",
          "type": "string"
        }
      ],
      "stateMutability": "view",
      "type": "function"
    },
    {
      "inputs": [],
      "name": "owner",
      "outputs": [
        {
          "internalType": "address",
          "name": "",
          "type": "address"
        }
      ],
      "stateMutability": "view",
      "type": "function"
    },
    {
      "inputs": [
        {
          "internalType": "uint256",
          "name": "tokenId",
          "type": "uint256"
        }
      ],
      "name": "ownerOf",
      "outputs": [
        {
          "internalType": "address",
          "name": "",
          "type": "address"
        }
      ],
      "stateMutability": "view",
      "type": "function"
    },
    {
      "inputs": [],
      "name": "renounceOwnership",
      "outputs": [],
      "stateMutability": "nonpayable",
      "type": "function"
    },
    {
      "inputs": [
        {
          "internalType": "uint256",
          "name": "tokenId",
          "type": "uint256"
        }
      ],
      "name": "revokeSBT",
      "outputs": [
        {
          "internalType": "bool",
          "name": "success",
          "type": "bool"
        }
      ],
      "stateMutability": "nonpayable",
      "type": "function"
    },
    {
      "inputs": [
        {
          "internalType": "uint256",
          "name": "",
          "type": "uint256"
        }
      ],
      "name": "revoked",
      "outputs": [
        {
          "internalType": "bool",
          "name": "",
          "type": "bool"
        }
      ],
      "stateMutability": "view",
      "type": "function"
    },
    {
      "inputs": [
        {
          "internalType": "address",
          "name": "from",
          "type": "address"
        },
        {
          "internalType": "address",
          "name": "to",
          "type": "address"
        },
        {
          "internalType": "uint256",
          "name": "tokenId",
          "type": "uint256"
        }
      ],
      "name": "safeTransferFrom",
      "outputs": [],
      "stateMutability": "nonpayable",
      "type": "function"
    },
    {
      "inputs": [
        {
          "internalType": "address",
          "name": "from",
          "type": "address"
        },
        {
          "internalType": "address",
          "name": "to",
          "type": "address"
        },
        {
          "internalType": "uint256",
          "name": "tokenId",
          "type": "uint256"
        },
        {
          "internalType": "bytes",
          "name": "data",
          "type": "bytes"
        }
      ],
      "name": "safeTransferFrom",
      "outputs": [],
      "stateMutability": "nonpayable",
      "type": "function"
    },
    {
      "inputs": [
        {
          "internalType": "address",
          "name": "operator",
          "type": "address"
        },
        {
          "internalType": "bool",
          "name": "approved",
          "type": "bool"
        }
      ],
      "name": "setApprovalForAll",
      "outputs": [],
      "stateMutability": "nonpayable",
      "type": "function"
    },
    {
      "inputs": [
        {
          "internalType": "bytes4",
          "name": "interfaceId",
          "type": "bytes4"
        }
      ],
      "name": "supportsInterface",
      "outputs": [
        {
          "internalType": "bool",
          "name": "",
          "type": "bool"
        }
      ],
      "stateMutability": "view",
      "type": "function"
    },
    {
      "inputs": [],
      "name": "symbol",
      "outputs": [
        {
          "internalType": "string",
          "name": "",
          "type": "string"
        }
      ],
      "stateMutability": "view",
      "type": "function"
    },
    {
      "inputs": [],
      "name": "tokenCounter",
      "outputs": [
        {
          "internalType": "uint256",
          "name": "",
          "type": "uint256"
        }
      ],
      "stateMutability": "view",
      "type": "function"
    },
    {
      "inputs": [
        {
          "internalType": "uint256",
          "name": "tokenId",
          "type": "uint256"
        }
      ],
      "name": "tokenExists",
      "outputs": [
        {
          "internalType": "bool",
          "name": "exists",
          "type": "bool"
        }
      ],
      "stateMutability": "view",
      "type": "function"
    },
    {
      "inputs": [
        {
          "internalType": "uint256",
          "name": "",
          "type": "uint256"
        }
      ],
      "name": "tokenMetadata",
      "outputs": [
        {
          "internalType": "uint256",
          "name": "experience",
          "type": "uint256"
        },
        {
          "internalType": "uint8",
          "name": "rating",
          "type": "uint8"
        },
        {
          "internalType": "uint256",
          "name": "lastUpdated",
          "type": "uint256"
        },
        {
          "internalType": "string",
          "name": "externalDataURI",
          "type": "string"
        }
      ],
      "stateMutability": "view",
      "type": "function"
    },
    {
      "inputs": [
        {
          "internalType": "uint256",
          "name": "tokenId",
          "type": "uint256"
        }
      ],
      "name": "tokenURI",
      "outputs": [
        {
          "internalType": "string",
          "name": "",
          "type": "string"
        }
      ],
      "stateMutability": "view",
      "type": "function"
    },
    {
      "inputs": [
        {
          "internalType": "address",
          "name": "from",
          "type": "address"
        },
        {
          "internalType": "address",
          "name": "to",
          "type": "address"
        },
        {
          "internalType": "uint256",
          "name": "tokenId",
          "type": "uint256"
        }
      ],
      "name": "transferFrom",
      "outputs": [],
      "stateMutability": "nonpayable",
      "type": "function"
    },
    {
      "inputs": [
        {
          "internalType": "address",
          "name": "newOwner",
          "type": "address"
        }
      ],
      "name": "transferOwnership",
      "outputs": [],
      "stateMutability": "nonpayable",
      "type": "function"
    },
    {
      "inputs": [
        {
          "internalType": "uint256",
          "name": "tokenId",
          "type": "uint256"
        },
        {
          "components": [
            {
              "internalType": "string[]",
              "name": "skills",
              "type": "string[]"
            },
            {
              "internalType": "uint256",
              "name": "experience",
              "type": "uint256"
            },
            {
              "internalType": "uint8",
              "name": "rating",
              "type": "uint8"
            },
            {
              "internalType": "uint256",
              "name": "lastUpdated",
              "type": "uint256"
            },
            {
              "internalType": "string",
              "name": "externalDataURI",
              "type": "string"
            }
          ],
          "internalType": "struct SBT.Metadata",
          "name": "newMetadata",
          "type": "tuple"
        }
      ],
      "name": "updateSBT",
      "outputs": [
        {
          "internalType": "bool",
          "name": "success",
          "type": "bool"
        }
      ],
      "stateMutability": "nonpayable",
      "type": "function"
    }
  ],
  "bytecode": "0x60806040523480156200001157600080fd5b50336040518060400160405280600e81526020017f536f756c626f756e64546f6b656e0000000000000000000000000000000000008152506040518060400160405280600381526020017f534254000000000000000000000000000000000000000000000000000000000081525081600090816200009091906200047a565b508060019081620000a291906200047a565b505050600073ffffffffffffffffffffffffffffffffffffffff168173ffffffffffffffffffffffffffffffffffffffff16036200011a5760006040517f1e4fbdf7000000000000000000000000000000000000000000000000000000008152600401620001119190620005a6565b60405180910390fd5b6200012b816200013a60201b60201c565b506001600781905550620005c3565b6000600660009054906101000a900473ffffffffffffffffffffffffffffffffffffffff16905081600660006101000a81548173ffffffffffffffffffffffffffffffffffffffff021916908373ffffffffffffffffffffffffffffffffffffffff1602179055508173ffffffffffffffffffffffffffffffffffffffff168173ffffffffffffffffffffffffffffffffffffffff167f8be0079c531659141344cd1fd0a4f28419497f9722a3daafe3b4186f6b6457e060405160405180910390a35050565b600081519050919050565b7f4e487b7100000000000000000000000000000000000000000000000000000000600052604160045260246000fd5b7f4e487b7100000000000000000000000000000000000000000000000000000000600052602260045260246000fd5b600060028204905060018216806200028257607f821691505b6020821081036200029857620002976200023a565b5b50919050565b60008190508160005260206000209050919050565b60006020601f8301049050919050565b600082821b905092915050565b600060088302620003027fffffffffffffffffffffffffffffffffffffffffffffffffffffffffffffffff82620002c3565b6200030e8683620002c3565b95508019841693508086168417925050509392505050565b6000819050919050565b6000819050919050565b60006200035b620003556200034f8462000326565b62000330565b62000326565b9050919050565b6000819050919050565b62000377836200033a565b6200038f620003868262000362565b848454620002d0565b825550505050565b600090565b620003a662000397565b620003b38184846200036c565b505050565b5b81811015620003db57620003cf6000826200039c565b600181019050620003b9565b5050565b601f8211156200042a57620003f4816200029e565b620003ff84620002b3565b810160208510156200040f578190505b620004276200041e85620002b3565b830182620003b8565b50505b505050565b600082821c905092915050565b60006200044f600019846008026200042f565b1980831691505092915050565b60006200046a83836200043c565b9150826002028217905092915050565b620004858262000200565b67ffffffffffffffff811115620004a157620004a06200020b565b5b620004ad825462000269565b620004ba828285620003df565b600060209050601f831160018114620004f25760008415620004dd578287015190505b620004e985826200045c565b86555062000559565b601f19841662000502866200029e565b60005b828110156200052c5784890151825560018201915060208501945060208101905062000505565b868310156200054c578489015162000548601f8916826200043c565b8355505b6001600288020188555050505b505050505050565b600073ffffffffffffffffffffffffffffffffffffffff82169050919050565b60006200058e8262000561565b9050919050565b620005a08162000581565b82525050565b6000602082019050620005bd600083018462000595565b92915050565b61340780620005d36000396000f3fe608060405234801561001057600080fd5b50600436106101725760003560e01c80636352211e116100de578063a22cb46511610097578063d082e38111610071578063d082e381146104aa578063d5b141e7146104c8578063e985e9c5146104f8578063f2fde38b1461052857610172565b8063a22cb46514610442578063b88d4fde1461045e578063c87b56dd1461047a57610172565b80636352211e146103695780636914db601461039957806370a08231146103cc578063715018a6146103fc5780638da5cb5b1461040657806395d89b411461042457610172565b8063095ea7b311610130578063095ea7b31461028557806323b872dd146102a157806337a28e3b146102bd5780634268553b146102ed57806342842e0e1461031d57806348f326e81461033957610172565b8062923f9e146101775780630166502a146101a757806301ffc9a7146101d757806303d015231461020757806306fdde0314610237578063081812fc14610255575b600080fd5b610191600480360381019061018c919061220c565b610544565b60405161019e9190612254565b60405180910390f35b6101c160048036038101906101bc919061220c565b610600565b6040516101ce91906122ff565b60405180910390f35b6101f160048036038101906101ec9190612379565b6106a0565b6040516101fe9190612254565b60405180910390f35b610221600480360381019061021c91906125fa565b610782565b60405161022e91906126ea565b60405180910390f35b61023f6107d1565b60405161024c91906122ff565b60405180910390f35b61026f600480360381019061026a919061220c565b610863565b60405161027c9190612746565b60405180910390f35b61029f600480360381019061029a919061278d565b61087f565b005b6102bb60048036038101906102b691906127cd565b610895565b005b6102d760048036038101906102d2919061220c565b610997565b6040516102e49190612254565b60405180910390f35b610307600480360381019061030291906128ee565b610a69565b6040516103149190612254565b60405180910390f35b610337600480360381019061033291906127cd565b610bdc565b005b610353600480360381019061034e919061294a565b610bfc565b60405161036091906126ea565b60405180910390f35b610383600480360381019061037e919061220c565b610d0c565b6040516103909190612746565b60405180910390f35b6103b360048036038101906103ae919061220c565b610d1e565b6040516103c394939291906129d1565b60405180910390f35b6103e660048036038101906103e19190612a1d565b610de3565b6040516103f391906126ea565b60405180910390f35b610404610e9d565b005b61040e610eb1565b60405161041b9190612746565b60405180910390f35b61042c610edb565b60405161043991906122ff565b60405180910390f35b61045c60048036038101906104579190612a76565b610f6d565b005b61047860048036038101906104739190612b57565b610f83565b005b610494600480360381019061048f919061220c565b610fa8565b6040516104a191906122ff565b60405180910390f35b6104b2611011565b6040516104bf91906126ea565b60405180910390f35b6104e260048036038101906104dd919061220c565b611017565b6040516104ef9190612254565b60405180910390f35b610512600480360381019061050d9190612bda565b611037565b60405161051f9190612254565b60405180910390f35b610542600480360381019061053d9190612a1d565b6110cb565b005b60003073ffffffffffffffffffffffffffffffffffffffff16636352211e836040518263ffffffff1660e01b815260040161057f91906126ea565b602060405180830381865afa9250505080156105b957506040513d601f19601f820116820180604052508101906105b69190612c2f565b60015b6105c657600090506105fb565b600073ffffffffffffffffffffffffffffffffffffffff168173ffffffffffffffffffffffffffffffffffffffff1614159150505b919050565b6008602052806000526040600020600091509050805461061f90612c8b565b80601f016020809104026020016040519081016040528092919081815260200182805461064b90612c8b565b80156106985780601f1061066d57610100808354040283529160200191610698565b820191906000526020600020905b81548152906001019060200180831161067b57829003601f168201915b505050505081565b60007f80ac58cd000000000000000000000000000000000000000000000000000000007bffffffffffffffffffffffffffffffffffffffffffffffffffffffff1916827bffffffffffffffffffffffffffffffffffffffffffffffffffffffff1916148061076b57507f5b5e139f000000000000000000000000000000000000000000000000000000007bffffffffffffffffffffffffffffffffffffffffffffffffffffffff1916827bffffffffffffffffffffffffffffffffffffffffffffffffffffffff1916145b8061077b575061077a82611151565b5b9050919050565b600061078c6111bb565b60006040518060a001604052808881526020018781526020018660ff1681526020018581526020018481525090506107c48882610bfc565b9150509695505050505050565b6060600080546107e090612c8b565b80601f016020809104026020016040519081016040528092919081815260200182805461080c90612c8b565b80156108595780601f1061082e57610100808354040283529160200191610859565b820191906000526020600020905b81548152906001019060200180831161083c57829003601f168201915b5050505050905090565b600061086e82611242565b50610878826112ca565b9050919050565b610891828261088c611307565b61130f565b5050565b600073ffffffffffffffffffffffffffffffffffffffff168273ffffffffffffffffffffffffffffffffffffffff16036109075760006040517f64a0ae920000000000000000000000000000000000000000000000000000000081526004016108fe9190612746565b60405180910390fd5b600061091b8383610916611307565b611321565b90508373ffffffffffffffffffffffffffffffffffffffff168173ffffffffffffffffffffffffffffffffffffffff1614610991578382826040517f64283d7b00000000000000000000000000000000000000000000000000000000815260040161098893929190612cbc565b60405180910390fd5b50505050565b60006109a16111bb565b6109aa82610544565b6109e9576040517f08c379a00000000000000000000000000000000000000000000000000000000081526004016109e090612d3f565b60405180910390fd5b6001600a600084815260200190815260200160002060006101000a81548160ff0219169083151502179055507f01ae8e5959a215d20d86eea57e4a2f216999a0ed71606f69a13b23d2bedba7588260086000858152602001908152602001600020604051610a58929190612df8565b60405180910390a160019050919050565b6000610a736111bb565b610a7c83610544565b610abb576040517f08c379a0000000000000000000000000000000000000000000000000000000008152600401610ab290612d3f565b60405180910390fd5b600a600084815260200190815260200160002060009054906101000a900460ff1615610b1c576040517f08c379a0000000000000000000000000000000000000000000000000000000008152600401610b1390612e74565b60405180910390fd5b81600960008581526020019081526020016000206000820151816000019080519060200190610b4c9291906120e8565b506020820151816001015560408201518160020160006101000a81548160ff021916908360ff160217905550606082015181600301556080820151816004019081610b97919061302b565b509050507f1283fd9c02e2e490ce899cbbecaf8a7f8287fec12ffa38f403fa00ceaeddf4d383604051610bca91906126ea565b60405180910390a16001905092915050565b610bf783838360405180602001604052806000815250610f83565b505050565b6000610c066111bb565b600754905060076000815480929190610c1e9061312c565b9190505550610c2d33826113ee565b82600860008381526020019081526020016000209081610c4d919061302b565b5081600960008381526020019081526020016000206000820151816000019080519060200190610c7e9291906120e8565b506020820151816001015560408201518160020160006101000a81548160ff021916908360ff160217905550606082015181600301556080820151816004019081610cc9919061302b565b509050507f0da850e7437c67ba4fd66377e252a8f945ca837b6e1ced30ccec866464bc90418382604051610cfe929190613174565b60405180910390a192915050565b6000610d1782611242565b9050919050565b60096020528060005260406000206000915090508060010154908060020160009054906101000a900460ff1690806003015490806004018054610d6090612c8b565b80601f0160208091040260200160405190810160405280929190818152602001828054610d8c90612c8b565b8015610dd95780601f10610dae57610100808354040283529160200191610dd9565b820191906000526020600020905b815481529060010190602001808311610dbc57829003601f168201915b5050505050905084565b60008073ffffffffffffffffffffffffffffffffffffffff168273ffffffffffffffffffffffffffffffffffffffff1603610e565760006040517f89c62b64000000000000000000000000000000000000000000000000000000008152600401610e4d9190612746565b60405180910390fd5b600360008373ffffffffffffffffffffffffffffffffffffffff1673ffffffffffffffffffffffffffffffffffffffff168152602001908152602001600020549050919050565b610ea56111bb565b610eaf600061140c565b565b6000600660009054906101000a900473ffffffffffffffffffffffffffffffffffffffff16905090565b606060018054610eea90612c8b565b80601f0160208091040260200160405190810160405280929190818152602001828054610f1690612c8b565b8015610f635780601f10610f3857610100808354040283529160200191610f63565b820191906000526020600020905b815481529060010190602001808311610f4657829003601f168201915b5050505050905090565b610f7f610f78611307565b83836114d2565b5050565b610f8e848484610895565b610fa2610f99611307565b85858585611641565b50505050565b6060610fb382611242565b506000610fbe6117f2565b90506000815111610fde5760405180602001604052806000815250611009565b80610fe884611809565b604051602001610ff99291906131e0565b6040516020818303038152906040525b915050919050565b60075481565b600a6020528060005260406000206000915054906101000a900460ff1681565b6000600560008473ffffffffffffffffffffffffffffffffffffffff1673ffffffffffffffffffffffffffffffffffffffff16815260200190815260200160002060008373ffffffffffffffffffffffffffffffffffffffff1673ffffffffffffffffffffffffffffffffffffffff16815260200190815260200160002060009054906101000a900460ff16905092915050565b6110d36111bb565b600073ffffffffffffffffffffffffffffffffffffffff168173ffffffffffffffffffffffffffffffffffffffff16036111455760006040517f1e4fbdf700000000000000000000000000000000000000000000000000000000815260040161113c9190612746565b60405180910390fd5b61114e8161140c565b50565b60007f01ffc9a7000000000000000000000000000000000000000000000000000000007bffffffffffffffffffffffffffffffffffffffffffffffffffffffff1916827bffffffffffffffffffffffffffffffffffffffffffffffffffffffff1916149050919050565b6111c3611307565b73ffffffffffffffffffffffffffffffffffffffff166111e1610eb1565b73ffffffffffffffffffffffffffffffffffffffff161461124057611204611307565b6040517f118cdaa70000000000000000000000000000000000000000000000000000000081526004016112379190612746565b60405180910390fd5b565b60008061124e836118d7565b9050600073ffffffffffffffffffffffffffffffffffffffff168173ffffffffffffffffffffffffffffffffffffffff16036112c157826040517f7e2732890000000000000000000000000000000000000000000000000000000081526004016112b891906126ea565b60405180910390fd5b80915050919050565b60006004600083815260200190815260200160002060009054906101000a900473ffffffffffffffffffffffffffffffffffffffff169050919050565b600033905090565b61131c8383836001611914565b505050565b60008061132d846118d7565b9050600073ffffffffffffffffffffffffffffffffffffffff168173ffffffffffffffffffffffffffffffffffffffff16141580156113995750600073ffffffffffffffffffffffffffffffffffffffff168573ffffffffffffffffffffffffffffffffffffffff1614155b156113d9576040517f08c379a00000000000000000000000000000000000000000000000000000000081526004016113d090613276565b60405180910390fd5b6113e4858585611ad9565b9150509392505050565b611408828260405180602001604052806000815250611cf3565b5050565b6000600660009054906101000a900473ffffffffffffffffffffffffffffffffffffffff16905081600660006101000a81548173ffffffffffffffffffffffffffffffffffffffff021916908373ffffffffffffffffffffffffffffffffffffffff1602179055508173ffffffffffffffffffffffffffffffffffffffff168173ffffffffffffffffffffffffffffffffffffffff167f8be0079c531659141344cd1fd0a4f28419497f9722a3daafe3b4186f6b6457e060405160405180910390a35050565b600073ffffffffffffffffffffffffffffffffffffffff168273ffffffffffffffffffffffffffffffffffffffff160361154357816040517f5b08ba1800000000000000000000000000000000000000000000000000000000815260040161153a9190612746565b60405180910390fd5b80600560008573ffffffffffffffffffffffffffffffffffffffff1673ffffffffffffffffffffffffffffffffffffffff16815260200190815260200160002060008473ffffffffffffffffffffffffffffffffffffffff1673ffffffffffffffffffffffffffffffffffffffff16815260200190815260200160002060006101000a81548160ff0219169083151502179055508173ffffffffffffffffffffffffffffffffffffffff168373ffffffffffffffffffffffffffffffffffffffff167f17307eab39ab6107e8899845ad3d59bd9653f200f220920489ca2b5937696c31836040516116349190612254565b60405180910390a3505050565b60008373ffffffffffffffffffffffffffffffffffffffff163b11156117eb578273ffffffffffffffffffffffffffffffffffffffff1663150b7a02868685856040518563ffffffff1660e01b81526004016116a094939291906132eb565b6020604051808303816000875af19250505080156116dc57506040513d601f19601f820116820180604052508101906116d9919061334c565b60015b611760573d806000811461170c576040519150601f19603f3d011682016040523d82523d6000602084013e611711565b606091505b50600081510361175857836040517f64a0ae9200000000000000000000000000000000000000000000000000000000815260040161174f9190612746565b60405180910390fd5b805181602001fd5b63150b7a0260e01b7bffffffffffffffffffffffffffffffffffffffffffffffffffffffff1916817bffffffffffffffffffffffffffffffffffffffffffffffffffffffff1916146117e957836040517f64a0ae920000000000000000000000000000000000000000000000000000000081526004016117e09190612746565b60405180910390fd5b505b5050505050565b606060405180602001604052806000815250905090565b60606000600161181884611d17565b01905060008167ffffffffffffffff811115611837576118366123b0565b5b6040519080825280601f01601f1916602001820160405280156118695781602001600182028036833780820191505090505b509050600082602001820190505b6001156118cc578080600190039150507f3031323334353637383961626364656600000000000000000000000000000000600a86061a8153600a85816118c0576118bf613379565b5b04945060008503611877575b819350505050919050565b60006002600083815260200190815260200160002060009054906101000a900473ffffffffffffffffffffffffffffffffffffffff169050919050565b808061194d5750600073ffffffffffffffffffffffffffffffffffffffff168273ffffffffffffffffffffffffffffffffffffffff1614155b15611a8157600061195d84611242565b9050600073ffffffffffffffffffffffffffffffffffffffff168373ffffffffffffffffffffffffffffffffffffffff16141580156119c857508273ffffffffffffffffffffffffffffffffffffffff168173ffffffffffffffffffffffffffffffffffffffff1614155b80156119db57506119d98184611037565b155b15611a1d57826040517fa9fbf51f000000000000000000000000000000000000000000000000000000008152600401611a149190612746565b60405180910390fd5b8115611a7f57838573ffffffffffffffffffffffffffffffffffffffff168273ffffffffffffffffffffffffffffffffffffffff167f8c5be1e5ebec7d5bd14f71427d1e84f3dd0314c0f7b2291e5b200ac8c7c3b92560405160405180910390a45b505b836004600085815260200190815260200160002060006101000a81548173ffffffffffffffffffffffffffffffffffffffff021916908373ffffffffffffffffffffffffffffffffffffffff16021790555050505050565b600080611ae5846118d7565b9050600073ffffffffffffffffffffffffffffffffffffffff168373ffffffffffffffffffffffffffffffffffffffff1614611b2757611b26818486611e6a565b5b600073ffffffffffffffffffffffffffffffffffffffff168173ffffffffffffffffffffffffffffffffffffffff1614611bb857611b69600085600080611914565b6001600360008373ffffffffffffffffffffffffffffffffffffffff1673ffffffffffffffffffffffffffffffffffffffff168152602001908152602001600020600082825403925050819055505b600073ffffffffffffffffffffffffffffffffffffffff168573ffffffffffffffffffffffffffffffffffffffff1614611c3b576001600360008773ffffffffffffffffffffffffffffffffffffffff1673ffffffffffffffffffffffffffffffffffffffff168152602001908152602001600020600082825401925050819055505b846002600086815260200190815260200160002060006101000a81548173ffffffffffffffffffffffffffffffffffffffff021916908373ffffffffffffffffffffffffffffffffffffffff160217905550838573ffffffffffffffffffffffffffffffffffffffff168273ffffffffffffffffffffffffffffffffffffffff167fddf252ad1be2c89b69c2b068fc378daa952ba7f163c4a11628f55a4df523b3ef60405160405180910390a4809150509392505050565b611cfd8383611f2e565b611d12611d08611307565b6000858585611641565b505050565b600080600090507a184f03e93ff9f4daa797ed6e38ed64bf6a1f0100000000000000008310611d75577a184f03e93ff9f4daa797ed6e38ed64bf6a1f0100000000000000008381611d6b57611d6a613379565b5b0492506040810190505b6d04ee2d6d415b85acef81000000008310611db2576d04ee2d6d415b85acef81000000008381611da857611da7613379565b5b0492506020810190505b662386f26fc100008310611de157662386f26fc100008381611dd757611dd6613379565b5b0492506010810190505b6305f5e1008310611e0a576305f5e1008381611e0057611dff613379565b5b0492506008810190505b6127108310611e2f576127108381611e2557611e24613379565b5b0492506004810190505b60648310611e525760648381611e4857611e47613379565b5b0492506002810190505b600a8310611e61576001810190505b80915050919050565b611e75838383612027565b611f2957600073ffffffffffffffffffffffffffffffffffffffff168373ffffffffffffffffffffffffffffffffffffffff1603611eea57806040517f7e273289000000000000000000000000000000000000000000000000000000008152600401611ee191906126ea565b60405180910390fd5b81816040517f177e802f000000000000000000000000000000000000000000000000000000008152600401611f209291906133a8565b60405180910390fd5b505050565b600073ffffffffffffffffffffffffffffffffffffffff168273ffffffffffffffffffffffffffffffffffffffff1603611fa05760006040517f64a0ae92000000000000000000000000000000000000000000000000000000008152600401611f979190612746565b60405180910390fd5b6000611fae83836000611321565b9050600073ffffffffffffffffffffffffffffffffffffffff168173ffffffffffffffffffffffffffffffffffffffff16146120225760006040517f73c6ac6e0000000000000000000000000000000000000000000000000000000081526004016120199190612746565b60405180910390fd5b505050565b60008073ffffffffffffffffffffffffffffffffffffffff168373ffffffffffffffffffffffffffffffffffffffff16141580156120df57508273ffffffffffffffffffffffffffffffffffffffff168473ffffffffffffffffffffffffffffffffffffffff1614806120a0575061209f8484611037565b5b806120de57508273ffffffffffffffffffffffffffffffffffffffff166120c6836112ca565b73ffffffffffffffffffffffffffffffffffffffff16145b5b90509392505050565b828054828255906000526020600020908101928215612130579160200282015b8281111561212f57825182908161211f919061302b565b5091602001919060010190612108565b5b50905061213d9190612141565b5090565b5b8082111561216157600081816121589190612165565b50600101612142565b5090565b50805461217190612c8b565b6000825580601f1061218357506121a2565b601f0160209004906000526020600020908101906121a191906121a5565b5b50565b5b808211156121be5760008160009055506001016121a6565b5090565b6000604051905090565b600080fd5b600080fd5b6000819050919050565b6121e9816121d6565b81146121f457600080fd5b50565b600081359050612206816121e0565b92915050565b600060208284031215612222576122216121cc565b5b6000612230848285016121f7565b91505092915050565b60008115159050919050565b61224e81612239565b82525050565b60006020820190506122696000830184612245565b92915050565b600081519050919050565b600082825260208201905092915050565b60005b838110156122a957808201518184015260208101905061228e565b60008484015250505050565b6000601f19601f8301169050919050565b60006122d18261226f565b6122db818561227a565b93506122eb81856020860161228b565b6122f4816122b5565b840191505092915050565b6000602082019050818103600083015261231981846122c6565b905092915050565b60007fffffffff0000000000000000000000000000000000000000000000000000000082169050919050565b61235681612321565b811461236157600080fd5b50565b6000813590506123738161234d565b92915050565b60006020828403121561238f5761238e6121cc565b5b600061239d84828501612364565b91505092915050565b600080fd5b600080fd5b7f4e487b7100000000000000000000000000000000000000000000000000000000600052604160045260246000fd5b6123e8826122b5565b810181811067ffffffffffffffff82111715612407576124066123b0565b5b80604052505050565b600061241a6121c2565b905061242682826123df565b919050565b600067ffffffffffffffff821115612446576124456123b0565b5b61244f826122b5565b9050602081019050919050565b82818337600083830152505050565b600061247e6124798461242b565b612410565b90508281526020810184848401111561249a576124996123ab565b5b6124a584828561245c565b509392505050565b600082601f8301126124c2576124c16123a6565b5b81356124d284826020860161246b565b91505092915050565b600067ffffffffffffffff8211156124f6576124f56123b0565b5b602082029050602081019050919050565b600080fd5b600061251f61251a846124db565b612410565b9050808382526020820190506020840283018581111561254257612541612507565b5b835b8181101561258957803567ffffffffffffffff811115612567576125666123a6565b5b80860161257489826124ad565b85526020850194505050602081019050612544565b5050509392505050565b600082601f8301126125a8576125a76123a6565b5b81356125b884826020860161250c565b91505092915050565b600060ff82169050919050565b6125d7816125c1565b81146125e257600080fd5b50565b6000813590506125f4816125ce565b92915050565b60008060008060008060c08789031215612617576126166121cc565b5b600087013567ffffffffffffffff811115612635576126346121d1565b5b61264189828a016124ad565b965050602087013567ffffffffffffffff811115612662576126616121d1565b5b61266e89828a01612593565b955050604061267f89828a016121f7565b945050606061269089828a016125e5565b93505060806126a189828a016121f7565b92505060a087013567ffffffffffffffff8111156126c2576126c16121d1565b5b6126ce89828a016124ad565b9150509295509295509295565b6126e4816121d6565b82525050565b60006020820190506126ff60008301846126db565b92915050565b600073ffffffffffffffffffffffffffffffffffffffff82169050919050565b600061273082612705565b9050919050565b61274081612725565b82525050565b600060208201905061275b6000830184612737565b92915050565b61276a81612725565b811461277557600080fd5b50565b60008135905061278781612761565b92915050565b600080604083850312156127a4576127a36121cc565b5b60006127b285828601612778565b92505060206127c3858286016121f7565b9150509250929050565b6000806000606084860312156127e6576127e56121cc565b5b60006127f486828701612778565b935050602061280586828701612778565b9250506040612816868287016121f7565b9150509250925092565b600080fd5b600080fd5b600060a082840312156128405761283f612820565b5b61284a60a0612410565b9050600082013567ffffffffffffffff81111561286a57612869612825565b5b61287684828501612593565b600083015250602061288a848285016121f7565b602083015250604061289e848285016125e5565b60408301525060606128b2848285016121f7565b606083015250608082013567ffffffffffffffff8111156128d6576128d5612825565b5b6128e2848285016124ad565b60808301525092915050565b60008060408385031215612905576129046121cc565b5b6000612913858286016121f7565b925050602083013567ffffffffffffffff811115612934576129336121d1565b5b6129408582860161282a565b9150509250929050565b60008060408385031215612961576129606121cc565b5b600083013567ffffffffffffffff81111561297f5761297e6121d1565b5b61298b858286016124ad565b925050602083013567ffffffffffffffff8111156129ac576129ab6121d1565b5b6129b88582860161282a565b9150509250929050565b6129cb816125c1565b82525050565b60006080820190506129e660008301876126db565b6129f360208301866129c2565b612a0060408301856126db565b8181036060830152612a1281846122c6565b905095945050505050565b600060208284031215612a3357612a326121cc565b5b6000612a4184828501612778565b91505092915050565b612a5381612239565b8114612a5e57600080fd5b50565b600081359050612a7081612a4a565b92915050565b60008060408385031215612a8d57612a8c6121cc565b5b6000612a9b85828601612778565b9250506020612aac85828601612a61565b9150509250929050565b600067ffffffffffffffff821115612ad157612ad06123b0565b5b612ada826122b5565b9050602081019050919050565b6000612afa612af584612ab6565b612410565b905082815260208101848484011115612b1657612b156123ab565b5b612b2184828561245c565b509392505050565b600082601f830112612b3e57612b3d6123a6565b5b8135612b4e848260208601612ae7565b91505092915050565b60008060008060808587031215612b7157612b706121cc565b5b6000612b7f87828801612778565b9450506020612b9087828801612778565b9350506040612ba1878288016121f7565b925050606085013567ffffffffffffffff811115612bc257612bc16121d1565b5b612bce87828801612b29565b91505092959194509250565b60008060408385031215612bf157612bf06121cc565b5b6000612bff85828601612778565b9250506020612c1085828601612778565b9150509250929050565b600081519050612c2981612761565b92915050565b600060208284031215612c4557612c446121cc565b5b6000612c5384828501612c1a565b91505092915050565b7f4e487b7100000000000000000000000000000000000000000000000000000000600052602260045260246000fd5b60006002820490506001821680612ca357607f821691505b602082108103612cb657612cb5612c5c565b5b50919050565b6000606082019050612cd16000830186612737565b612cde60208301856126db565b612ceb6040830184612737565b949350505050565b7f546f6b656e20646f6573206e6f74206578697374000000000000000000000000600082015250565b6000612d2960148361227a565b9150612d3482612cf3565b602082019050919050565b60006020820190508181036000830152612d5881612d1c565b9050919050565b60008190508160005260206000209050919050565b60008154612d8181612c8b565b612d8b818661227a565b94506001821660008114612da65760018114612dbc57612def565b60ff198316865281151560200286019350612def565b612dc585612d5f565b60005b83811015612de757815481890152600182019150602081019050612dc8565b808801955050505b50505092915050565b6000604082019050612e0d60008301856126db565b8181036020830152612e1f8184612d74565b90509392505050565b7f546f6b656e20686173206265656e207265766f6b656400000000000000000000600082015250565b6000612e5e60168361227a565b9150612e6982612e28565b602082019050919050565b60006020820190508181036000830152612e8d81612e51565b9050919050565b60006020601f8301049050919050565b600082821b905092915050565b600060088302612ee17fffffffffffffffffffffffffffffffffffffffffffffffffffffffffffffffff82612ea4565b612eeb8683612ea4565b95508019841693508086168417925050509392505050565b6000819050919050565b6000612f28612f23612f1e846121d6565b612f03565b6121d6565b9050919050565b6000819050919050565b612f4283612f0d565b612f56612f4e82612f2f565b848454612eb1565b825550505050565b600090565b612f6b612f5e565b612f76818484612f39565b505050565b5b81811015612f9a57612f8f600082612f63565b600181019050612f7c565b5050565b601f821115612fdf57612fb081612d5f565b612fb984612e94565b81016020851015612fc8578190505b612fdc612fd485612e94565b830182612f7b565b50505b505050565b600082821c905092915050565b600061300260001984600802612fe4565b1980831691505092915050565b600061301b8383612ff1565b9150826002028217905092915050565b6130348261226f565b67ffffffffffffffff81111561304d5761304c6123b0565b5b6130578254612c8b565b613062828285612f9e565b600060209050601f8311600181146130955760008415613083578287015190505b61308d858261300f565b8655506130f5565b601f1984166130a386612d5f565b60005b828110156130cb578489015182556001820191506020850194506020810190506130a6565b868310156130e857848901516130e4601f891682612ff1565b8355505b6001600288020188555050505b505050505050565b7f4e487b7100000000000000000000000000000000000000000000000000000000600052601160045260246000fd5b6000613137826121d6565b91507fffffffffffffffffffffffffffffffffffffffffffffffffffffffffffffffff8203613169576131686130fd565b5b600182019050919050565b6000604082019050818103600083015261318e81856122c6565b905061319d60208301846126db565b9392505050565b600081905092915050565b60006131ba8261226f565b6131c481856131a4565b93506131d481856020860161228b565b80840191505092915050565b60006131ec82856131af565b91506131f882846131af565b91508190509392505050565b7f536f756c626f756e6420746f6b656e206973206e6f6e2d7472616e736665726160008201527f626c650000000000000000000000000000000000000000000000000000000000602082015250565b600061326060238361227a565b915061326b82613204565b604082019050919050565b6000602082019050818103600083015261328f81613253565b9050919050565b600081519050919050565b600082825260208201905092915050565b60006132bd82613296565b6132c781856132a1565b93506132d781856020860161228b565b6132e0816122b5565b840191505092915050565b60006080820190506133006000830187612737565b61330d6020830186612737565b61331a60408301856126db565b818103606083015261332c81846132b2565b905095945050505050565b6000815190506133468161234d565b92915050565b600060208284031215613362576133616121cc565b5b600061337084828501613337565b91505092915050565b7f4e487b7100000000000000000000000000000000000000000000000000000000600052601260045260246000fd5b60006040820190506133bd6000830185612737565b6133ca60208301846126db565b939250505056fea2646970667358221220464fa7ffd7a4a98fb930666590c3dab506f5ba36b1baf005be0ec2cbb693441b64736f6c63430008140033",
  "linkReferences": {},
  "deployedLinkReferences": {}
}