{
  "_format": "hh-sol-artifact-1",
  "contractName": "FraudBlacklist",
  "sourceName": "contracts/FraudBlacklist.sol",
  "abi": [
    {
      "inputs": [],
      "stateMutability": "nonpayable",
      "type": "constructor"
    },
    {
      "inputs": [
        {
          "internalType": "address",
          "name": "owner",
          "type": "address"
        }
      ],
      "name": "OwnableInvalidOwner",
      "type": "error"
    },
    {
      "inputs": [
        {
          "internalType": "address",
          "name": "account",
          "type": "address"
        }
      ],
      "name": "OwnableUnauthorizedAccount",
      "type": "error"
    },
    {
      "anonymous": false,
      "inputs": [
        {
          "indexed": false,
          "internalType": "string",
          "name": "did",
          "type": "string"
        }
      ],
      "name": "DIDBlacklisted",
      "type": "event"
    },
    {
      "anonymous": false,
      "inputs": [
        {
          "indexed": false,
          "internalType": "string",
          "name": "did",
          "type": "string"
        }
      ],
      "name": "DIDRemovedFromBlacklist",
      "type": "event"
    },
    {
      "anonymous": false,
      "inputs": [
        {
          "indexed": true,
          "internalType": "address",
          "name": "previousOwner",
          "type": "address"
        },
        {
          "indexed": true,
          "internalType": "address",
          "name": "newOwner",
          "type": "address"
        }
      ],
      "name": "OwnershipTransferred",
      "type": "event"
    },
    {
      "inputs": [
        {
          "internalType": "string",
          "name": "did",
          "type": "string"
        }
      ],
      "name": "addToBlacklist",
      "outputs": [],
      "stateMutability": "nonpayable",
      "type": "function"
    },
    {
      "inputs": [
        {
          "internalType": "string",
          "name": "did",
          "type": "string"
        }
      ],
      "name": "isBlacklisted",
      "outputs": [
        {
          "internalType": "bool",
          "name": "",
          "type": "bool"
        }
      ],
      "stateMutability": "view",
      "type": "function"
    },
    {
      "inputs": [],
      "name": "owner",
      "outputs": [
        {
          "internalType": "address",
          "name": "",
          "type": "address"
        }
      ],
      "stateMutability": "view",
      "type": "function"
    },
    {
      "inputs": [
        {
          "internalType": "string",
          "name": "did",
          "type": "string"
        }
      ],
      "name": "removeFromBlacklist",
      "outputs": [],
      "stateMutability": "nonpayable",
      "type": "function"
    },
    {
      "inputs": [],
      "name": "renounceOwnership",
      "outputs": [],
      "stateMutability": "nonpayable",
      "type": "function"
    },
    {
      "inputs": [
        {
          "internalType": "address",
          "name": "newOwner",
          "type": "address"
        }
      ],
      "name": "transferOwnership",
      "outputs": [],
      "stateMutability": "nonpayable",
      "type": "function"
    }
  ],
  "bytecode": "0x608060405234801561001057600080fd5b5033600073ffffffffffffffffffffffffffffffffffffffff168173ffffffffffffffffffffffffffffffffffffffff16036100845760006040517f1e4fbdf700000000000000000000000000000000000000000000000000000000815260040161007b919061019e565b60405180910390fd5b6100938161009960201b60201c565b506101b9565b60008060009054906101000a900473ffffffffffffffffffffffffffffffffffffffff169050816000806101000a81548173ffffffffffffffffffffffffffffffffffffffff021916908373ffffffffffffffffffffffffffffffffffffffff1602179055508173ffffffffffffffffffffffffffffffffffffffff168173ffffffffffffffffffffffffffffffffffffffff167f8be0079c531659141344cd1fd0a4f28419497f9722a3daafe3b4186f6b6457e060405160405180910390a35050565b600073ffffffffffffffffffffffffffffffffffffffff82169050919050565b60006101888261015d565b9050919050565b6101988161017d565b82525050565b60006020820190506101b3600083018461018f565b92915050565b610aed806101c86000396000f3fe608060405234801561001057600080fd5b50600436106100625760003560e01c80635174973614610067578063715018a6146100835780638da5cb5b1461008d578063ed6229b2146100ab578063f2fde38b146100c7578063ff626727146100e3575b600080fd5b610081600480360381019061007c919061074b565b610113565b005b61008b61023b565b005b61009561024f565b6040516100a291906107d5565b60405180910390f35b6100c560048036038101906100c0919061074b565b610278565b005b6100e160048036038101906100dc919061081c565b6103a0565b005b6100fd60048036038101906100f8919061074b565b610426565b60405161010a9190610864565b60405180910390f35b61011b61049e565b600081511161015f576040517f08c379a0000000000000000000000000000000000000000000000000000000008152600401610156906108dc565b60405180910390fd5b60018160405161016f919061096d565b908152602001604051809103902060009054906101000a900460ff16156101cb576040517f08c379a00000000000000000000000000000000000000000000000000000000081526004016101c2906109d0565b60405180910390fd5b600180826040516101dc919061096d565b908152602001604051809103902060006101000a81548160ff0219169083151502179055507f7bca1e2ece291ea1bc9bf98df4934148b5884b4dad851348b30dbe10db5cc0f0816040516102309190610a29565b60405180910390a150565b61024361049e565b61024d6000610525565b565b60008060009054906101000a900473ffffffffffffffffffffffffffffffffffffffff16905090565b61028061049e565b60008151116102c4576040517f08c379a00000000000000000000000000000000000000000000000000000000081526004016102bb906108dc565b60405180910390fd5b6001816040516102d4919061096d565b908152602001604051809103902060009054906101000a900460ff1661032f576040517f08c379a000000000000000000000000000000000000000000000000000000000815260040161032690610a97565b60405180910390fd5b6000600182604051610341919061096d565b908152602001604051809103902060006101000a81548160ff0219169083151502179055507ff54e854f9a5652cdea62077ff481da24b48a589195374d7788b82d7985955402816040516103959190610a29565b60405180910390a150565b6103a861049e565b600073ffffffffffffffffffffffffffffffffffffffff168173ffffffffffffffffffffffffffffffffffffffff160361041a5760006040517f1e4fbdf700000000000000000000000000000000000000000000000000000000815260040161041191906107d5565b60405180910390fd5b61042381610525565b50565b60008082511161046b576040517f08c379a0000000000000000000000000000000000000000000000000000000008152600401610462906108dc565b60405180910390fd5b60018260405161047b919061096d565b908152602001604051809103902060009054906101000a900460ff169050919050565b6104a66105e9565b73ffffffffffffffffffffffffffffffffffffffff166104c461024f565b73ffffffffffffffffffffffffffffffffffffffff1614610523576104e76105e9565b6040517f118cdaa700000000000000000000000000000000000000000000000000000000815260040161051a91906107d5565b60405180910390fd5b565b60008060009054906101000a900473ffffffffffffffffffffffffffffffffffffffff169050816000806101000a81548173ffffffffffffffffffffffffffffffffffffffff021916908373ffffffffffffffffffffffffffffffffffffffff1602179055508173ffffffffffffffffffffffffffffffffffffffff168173ffffffffffffffffffffffffffffffffffffffff167f8be0079c531659141344cd1fd0a4f28419497f9722a3daafe3b4186f6b6457e060405160405180910390a35050565b600033905090565b6000604051905090565b600080fd5b600080fd5b600080fd5b600080fd5b6000601f19601f8301169050919050565b7f4e487b7100000000000000000000000000000000000000000000000000000000600052604160045260246000fd5b6106588261060f565b810181811067ffffffffffffffff8211171561067757610676610620565b5b80604052505050565b600061068a6105f1565b9050610696828261064f565b919050565b600067ffffffffffffffff8211156106b6576106b5610620565b5b6106bf8261060f565b9050602081019050919050565b82818337600083830152505050565b60006106ee6106e98461069b565b610680565b90508281526020810184848401111561070a5761070961060a565b5b6107158482856106cc565b509392505050565b600082601f83011261073257610731610605565b5b81356107428482602086016106db565b91505092915050565b600060208284031215610761576107606105fb565b5b600082013567ffffffffffffffff81111561077f5761077e610600565b5b61078b8482850161071d565b91505092915050565b600073ffffffffffffffffffffffffffffffffffffffff82169050919050565b60006107bf82610794565b9050919050565b6107cf816107b4565b82525050565b60006020820190506107ea60008301846107c6565b92915050565b6107f9816107b4565b811461080457600080fd5b50565b600081359050610816816107f0565b92915050565b600060208284031215610832576108316105fb565b5b600061084084828501610807565b91505092915050565b60008115159050919050565b61085e81610849565b82525050565b60006020820190506108796000830184610855565b92915050565b600082825260208201905092915050565b7f4449442063616e6e6f7420626520656d70747900000000000000000000000000600082015250565b60006108c660138361087f565b91506108d182610890565b602082019050919050565b600060208201905081810360008301526108f5816108b9565b9050919050565b600081519050919050565b600081905092915050565b60005b83811015610930578082015181840152602081019050610915565b60008484015250505050565b6000610947826108fc565b6109518185610907565b9350610961818560208601610912565b80840191505092915050565b6000610979828461093c565b915081905092915050565b7f44494420697320616c726561647920626c61636b6c6973746564000000000000600082015250565b60006109ba601a8361087f565b91506109c582610984565b602082019050919050565b600060208201905081810360008301526109e9816109ad565b9050919050565b60006109fb826108fc565b610a05818561087f565b9350610a15818560208601610912565b610a1e8161060f565b840191505092915050565b60006020820190508181036000830152610a4381846109f0565b905092915050565b7f444944206973206e6f7420626c61636b6c697374656400000000000000000000600082015250565b6000610a8160168361087f565b9150610a8c82610a4b565b602082019050919050565b60006020820190508181036000830152610ab081610a74565b905091905056fea2646970667358221220025559391f9a497a9bbc30a47b062d30143b60d4b026ab84aa2d691202d9cbe764736f6c63430008140033",
  "linkReferences": {},
  "deployedLinkReferences": {}
}