{
  "_format": "hh-sol-artifact-1",
  "contractName": "Reputation",
  "sourceName": "contracts/Reputation.sol",
  "abi": [
    {
      "inputs": [],
      "stateMutability": "nonpayable",
      "type": "constructor"
    },
    {
      "inputs": [
        {
          "internalType": "address",
          "name": "owner",
          "type": "address"
        }
      ],
      "name": "OwnableInvalidOwner",
      "type": "error"
    },
    {
      "inputs": [
        {
          "internalType": "address",
          "name": "account",
          "type": "address"
        }
      ],
      "name": "OwnableUnauthorizedAccount",
      "type": "error"
    },
    {
      "anonymous": false,
      "inputs": [
        {
          "indexed": true,
          "internalType": "address",
          "name": "previousOwner",
          "type": "address"
        },
        {
          "indexed": true,
          "internalType": "address",
          "name": "newOwner",
          "type": "address"
        }
      ],
      "name": "OwnershipTransferred",
      "type": "event"
    },
    {
      "anonymous": false,
      "inputs": [
        {
          "indexed": true,
          "internalType": "uint256",
          "name": "tokenId",
          "type": "uint256"
        },
        {
          "indexed": false,
          "internalType": "uint8",
          "name": "newRating",
          "type": "uint8"
        },
        {
          "indexed": false,
          "internalType": "string",
          "name": "newWorkHistoryURI",
          "type": "string"
        },
        {
          "indexed": false,
          "internalType": "uint256",
          "name": "timestamp",
          "type": "uint256"
        }
      ],
      "name": "ReputationUpdated",
      "type": "event"
    },
    {
      "inputs": [
        {
          "internalType": "uint256",
          "name": "tokenId",
          "type": "uint256"
        }
      ],
      "name": "getReputation",
      "outputs": [
        {
          "internalType": "uint8",
          "name": "rating",
          "type": "uint8"
        },
        {
          "internalType": "string",
          "name": "workHistoryURI",
          "type": "string"
        },
        {
          "internalType": "uint256",
          "name": "lastUpdated",
          "type": "uint256"
        }
      ],
      "stateMutability": "view",
      "type": "function"
    },
    {
      "inputs": [],
      "name": "owner",
      "outputs": [
        {
          "internalType": "address",
          "name": "",
          "type": "address"
        }
      ],
      "stateMutability": "view",
      "type": "function"
    },
    {
      "inputs": [],
      "name": "renounceOwnership",
      "outputs": [],
      "stateMutability": "nonpayable",
      "type": "function"
    },
    {
      "inputs": [
        {
          "internalType": "address",
          "name": "newOwner",
          "type": "address"
        }
      ],
      "name": "transferOwnership",
      "outputs": [],
      "stateMutability": "nonpayable",
      "type": "function"
    },
    {
      "inputs": [
        {
          "internalType": "uint256",
          "name": "tokenId",
          "type": "uint256"
        },
        {
          "internalType": "uint8",
          "name": "newRating",
          "type": "uint8"
        },
        {
          "internalType": "string",
          "name": "newWorkHistoryURI",
          "type": "string"
        }
      ],
      "name": "updateReputation",
      "outputs": [],
      "stateMutability": "nonpayable",
      "type": "function"
    }
  ],
  "bytecode": "0x608060405234801561001057600080fd5b5033600073ffffffffffffffffffffffffffffffffffffffff168173ffffffffffffffffffffffffffffffffffffffff16036100845760006040517f1e4fbdf700000000000000000000000000000000000000000000000000000000815260040161007b919061019e565b60405180910390fd5b6100938161009960201b60201c565b506101b9565b60008060009054906101000a900473ffffffffffffffffffffffffffffffffffffffff169050816000806101000a81548173ffffffffffffffffffffffffffffffffffffffff021916908373ffffffffffffffffffffffffffffffffffffffff1602179055508173ffffffffffffffffffffffffffffffffffffffff168173ffffffffffffffffffffffffffffffffffffffff167f8be0079c531659141344cd1fd0a4f28419497f9722a3daafe3b4186f6b6457e060405160405180910390a35050565b600073ffffffffffffffffffffffffffffffffffffffff82169050919050565b60006101888261015d565b9050919050565b6101988161017d565b82525050565b60006020820190506101b3600083018461018f565b92915050565b610e13806101c86000396000f3fe608060405234801561001057600080fd5b50600436106100575760003560e01c8063715018a61461005c57806389370d8b146100665780638da5cb5b1461009857806397ae1879146100b6578063f2fde38b146100d2575b600080fd5b6100646100ee565b005b610080600480360381019061007b91906105ea565b610102565b60405161008f939291906106d2565b60405180910390f35b6100a0610246565b6040516100ad9190610751565b60405180910390f35b6100d060048036038101906100cb91906108cd565b61026f565b005b6100ec60048036038101906100e79190610968565b6103c7565b005b6100f661044d565b61010060006104d4565b565b60006060600080600160008681526020019081526020016000206040518060600160405290816000820160009054906101000a900460ff1660ff1660ff168152602001600182018054610154906109c4565b80601f0160208091040260200160405190810160405280929190818152602001828054610180906109c4565b80156101cd5780601f106101a2576101008083540402835291602001916101cd565b820191906000526020600020905b8154815290600101906020018083116101b057829003601f168201915b5050505050815260200160028201548152505090506000816040015103610229576040517f08c379a000000000000000000000000000000000000000000000000000000000815260040161022090610a67565b60405180910390fd5b806000015181602001518260400151935093509350509193909250565b60008060009054906101000a900473ffffffffffffffffffffffffffffffffffffffff16905090565b61027761044d565b60008260ff1611801561028e575060058260ff1611155b6102cd576040517f08c379a00000000000000000000000000000000000000000000000000000000081526004016102c490610ad3565b60405180910390fd5b6000815111610311576040517f08c379a000000000000000000000000000000000000000000000000000000000815260040161030890610b3f565b60405180910390fd5b60405180606001604052808360ff168152602001828152602001428152506001600085815260200190815260200160002060008201518160000160006101000a81548160ff021916908360ff16021790555060208201518160010190816103789190610d0b565b5060408201518160020155905050827fb2e582d3dd8cd563806256a135e184776c6ed04dabb1464411648acb07e0cbfe8383426040516103ba939291906106d2565b60405180910390a2505050565b6103cf61044d565b600073ffffffffffffffffffffffffffffffffffffffff168173ffffffffffffffffffffffffffffffffffffffff16036104415760006040517f1e4fbdf70000000000000000000000000000000000000000000000000000000081526004016104389190610751565b60405180910390fd5b61044a816104d4565b50565b610455610598565b73ffffffffffffffffffffffffffffffffffffffff16610473610246565b73ffffffffffffffffffffffffffffffffffffffff16146104d257610496610598565b6040517f118cdaa70000000000000000000000000000000000000000000000000000000081526004016104c99190610751565b60405180910390fd5b565b60008060009054906101000a900473ffffffffffffffffffffffffffffffffffffffff169050816000806101000a81548173ffffffffffffffffffffffffffffffffffffffff021916908373ffffffffffffffffffffffffffffffffffffffff1602179055508173ffffffffffffffffffffffffffffffffffffffff168173ffffffffffffffffffffffffffffffffffffffff167f8be0079c531659141344cd1fd0a4f28419497f9722a3daafe3b4186f6b6457e060405160405180910390a35050565b600033905090565b6000604051905090565b600080fd5b600080fd5b6000819050919050565b6105c7816105b4565b81146105d257600080fd5b50565b6000813590506105e4816105be565b92915050565b600060208284031215610600576105ff6105aa565b5b600061060e848285016105d5565b91505092915050565b600060ff82169050919050565b61062d81610617565b82525050565b600081519050919050565b600082825260208201905092915050565b60005b8381101561066d578082015181840152602081019050610652565b60008484015250505050565b6000601f19601f8301169050919050565b600061069582610633565b61069f818561063e565b93506106af81856020860161064f565b6106b881610679565b840191505092915050565b6106cc816105b4565b82525050565b60006060820190506106e76000830186610624565b81810360208301526106f9818561068a565b905061070860408301846106c3565b949350505050565b600073ffffffffffffffffffffffffffffffffffffffff82169050919050565b600061073b82610710565b9050919050565b61074b81610730565b82525050565b60006020820190506107666000830184610742565b92915050565b61077581610617565b811461078057600080fd5b50565b6000813590506107928161076c565b92915050565b600080fd5b600080fd5b7f4e487b7100000000000000000000000000000000000000000000000000000000600052604160045260246000fd5b6107da82610679565b810181811067ffffffffffffffff821117156107f9576107f86107a2565b5b80604052505050565b600061080c6105a0565b905061081882826107d1565b919050565b600067ffffffffffffffff821115610838576108376107a2565b5b61084182610679565b9050602081019050919050565b82818337600083830152505050565b600061087061086b8461081d565b610802565b90508281526020810184848401111561088c5761088b61079d565b5b61089784828561084e565b509392505050565b600082601f8301126108b4576108b3610798565b5b81356108c484826020860161085d565b91505092915050565b6000806000606084860312156108e6576108e56105aa565b5b60006108f4868287016105d5565b935050602061090586828701610783565b925050604084013567ffffffffffffffff811115610926576109256105af565b5b6109328682870161089f565b9150509250925092565b61094581610730565b811461095057600080fd5b50565b6000813590506109628161093c565b92915050565b60006020828403121561097e5761097d6105aa565b5b600061098c84828501610953565b91505092915050565b7f4e487b7100000000000000000000000000000000000000000000000000000000600052602260045260246000fd5b600060028204905060018216806109dc57607f821691505b6020821081036109ef576109ee610995565b5b50919050565b7f4e6f2072657075746174696f6e206461746120617661696c61626c6520666f7260008201527f207468697320746f6b656e000000000000000000000000000000000000000000602082015250565b6000610a51602b8361063e565b9150610a5c826109f5565b604082019050919050565b60006020820190508181036000830152610a8081610a44565b9050919050565b7f526174696e67206d757374206265206265747765656e203120616e6420350000600082015250565b6000610abd601e8361063e565b9150610ac882610a87565b602082019050919050565b60006020820190508181036000830152610aec81610ab0565b9050919050565b7f576f726b20486973746f7279205552492063616e6e6f7420626520656d707479600082015250565b6000610b2960208361063e565b9150610b3482610af3565b602082019050919050565b60006020820190508181036000830152610b5881610b1c565b9050919050565b60008190508160005260206000209050919050565b60006020601f8301049050919050565b600082821b905092915050565b600060088302610bc17fffffffffffffffffffffffffffffffffffffffffffffffffffffffffffffffff82610b84565b610bcb8683610b84565b95508019841693508086168417925050509392505050565b6000819050919050565b6000610c08610c03610bfe846105b4565b610be3565b6105b4565b9050919050565b6000819050919050565b610c2283610bed565b610c36610c2e82610c0f565b848454610b91565b825550505050565b600090565b610c4b610c3e565b610c56818484610c19565b505050565b5b81811015610c7a57610c6f600082610c43565b600181019050610c5c565b5050565b601f821115610cbf57610c9081610b5f565b610c9984610b74565b81016020851015610ca8578190505b610cbc610cb485610b74565b830182610c5b565b50505b505050565b600082821c905092915050565b6000610ce260001984600802610cc4565b1980831691505092915050565b6000610cfb8383610cd1565b9150826002028217905092915050565b610d1482610633565b67ffffffffffffffff811115610d2d57610d2c6107a2565b5b610d3782546109c4565b610d42828285610c7e565b600060209050601f831160018114610d755760008415610d63578287015190505b610d6d8582610cef565b865550610dd5565b601f198416610d8386610b5f565b60005b82811015610dab57848901518255600182019150602085019450602081019050610d86565b86831015610dc85784890151610dc4601f891682610cd1565b8355505b6001600288020188555050505b50505050505056fea26469706673582212200ae519ca7441e1638553ccf06d7a69131e5b1d9fe3dbf989a521c39dc881641664736f6c63430008140033",
  "linkReferences": {},
  "deployedLinkReferences": {}
}