{
  "_format": "hh-sol-artifact-1",
  "contractName": "DIDRegistry",
  "sourceName": "contracts/DIDRegistry.sol",
  "abi": [
    {
      "anonymous": false,
      "inputs": [
        {
          "indexed": true,
          "internalType": "address",
          "name": "user",
          "type": "address"
        },
        {
          "indexed": false,
          "internalType": "string",
          "name": "did",
          "type": "string"
        },
        {
          "indexed": false,
          "internalType": "uint256",
          "name": "timestamp",
          "type": "uint256"
        }
      ],
      "name": "DIDRegistered",
      "type": "event"
    },
    {
      "inputs": [
        {
          "internalType": "string",
          "name": "",
          "type": "string"
        }
      ],
      "name": "didRecords",
      "outputs": [
        {
          "internalType": "string",
          "name": "did",
          "type": "string"
        },
        {
          "internalType": "address",
          "name": "userWallet",
          "type": "address"
        },
        {
          "internalType": "string",
          "name": "uniqueIdentifierHash",
          "type": "string"
        },
        {
          "internalType": "uint256",
          "name": "timestamp",
          "type": "uint256"
        }
      ],
      "stateMutability": "view",
      "type": "function"
    },
    {
      "inputs": [
        {
          "internalType": "address",
          "name": "userWallet",
          "type": "address"
        },
        {
          "internalType": "string",
          "name": "did",
          "type": "string"
        },
        {
          "internalType": "string",
          "name": "uniqueIdentifierHash",
          "type": "string"
        },
        {
          "internalType": "uint256",
          "name": "timestamp",
          "type": "uint256"
        }
      ],
      "name": "registerDID",
      "outputs": [],
      "stateMutability": "nonpayable",
      "type": "function"
    },
    {
      "inputs": [
        {
          "internalType": "address",
          "name": "",
          "type": "address"
        }
      ],
      "name": "userToDID",
      "outputs": [
        {
          "internalType": "string",
          "name": "",
          "type": "string"
        }
      ],
      "stateMutability": "view",
      "type": "function"
    }
  ],
  "bytecode": "0x608060405234801561001057600080fd5b50610cda806100206000396000f3fe608060405234801561001057600080fd5b50600436106100415760003560e01c806333061caf14610046578063e88d5eba14610062578063fbcfc01514610092575b600080fd5b610060600480360381019061005b91906106b0565b6100c5565b005b61007c6004803603810190610077919061074f565b6102ac565b60405161008991906107fb565b60405180910390f35b6100ac60048036038101906100a7919061081d565b61034c565b6040516100bc9493929190610884565b60405180910390f35b600080846040516100d69190610913565b908152602001604051809103902060000180546100f290610959565b905014610134576040517f08c379a000000000000000000000000000000000000000000000000000000000815260040161012b906109d6565b60405180910390fd5b60405180608001604052808481526020018573ffffffffffffffffffffffffffffffffffffffff1681526020018381526020018281525060008460405161017b9190610913565b9081526020016040518091039020600082015181600001908161019e9190610ba2565b5060208201518160010160006101000a81548173ffffffffffffffffffffffffffffffffffffffff021916908373ffffffffffffffffffffffffffffffffffffffff16021790555060408201518160020190816101fb9190610ba2565b506060820151816003015590505082600160008673ffffffffffffffffffffffffffffffffffffffff1673ffffffffffffffffffffffffffffffffffffffff16815260200190815260200160002090816102559190610ba2565b508373ffffffffffffffffffffffffffffffffffffffff167f208dff384c909c91beffe978ba88e0014aa203180b2e6a3542e153bcc0f0fced848360405161029e929190610c74565b60405180910390a250505050565b600160205280600052604060002060009150905080546102cb90610959565b80601f01602080910402602001604051908101604052809291908181526020018280546102f790610959565b80156103445780601f1061031957610100808354040283529160200191610344565b820191906000526020600020905b81548152906001019060200180831161032757829003601f168201915b505050505081565b60008180516020810182018051848252602083016020850120818352809550505050505060009150905080600001805461038590610959565b80601f01602080910402602001604051908101604052809291908181526020018280546103b190610959565b80156103fe5780601f106103d3576101008083540402835291602001916103fe565b820191906000526020600020905b8154815290600101906020018083116103e157829003601f168201915b5050505050908060010160009054906101000a900473ffffffffffffffffffffffffffffffffffffffff169080600201805461043990610959565b80601f016020809104026020016040519081016040528092919081815260200182805461046590610959565b80156104b25780601f10610487576101008083540402835291602001916104b2565b820191906000526020600020905b81548152906001019060200180831161049557829003601f168201915b5050505050908060030154905084565b6000604051905090565b600080fd5b600080fd5b600073ffffffffffffffffffffffffffffffffffffffff82169050919050565b6000610501826104d6565b9050919050565b610511816104f6565b811461051c57600080fd5b50565b60008135905061052e81610508565b92915050565b600080fd5b600080fd5b6000601f19601f8301169050919050565b7f4e487b7100000000000000000000000000000000000000000000000000000000600052604160045260246000fd5b6105878261053e565b810181811067ffffffffffffffff821117156105a6576105a561054f565b5b80604052505050565b60006105b96104c2565b90506105c5828261057e565b919050565b600067ffffffffffffffff8211156105e5576105e461054f565b5b6105ee8261053e565b9050602081019050919050565b82818337600083830152505050565b600061061d610618846105ca565b6105af565b90508281526020810184848401111561063957610638610539565b5b6106448482856105fb565b509392505050565b600082601f83011261066157610660610534565b5b813561067184826020860161060a565b91505092915050565b6000819050919050565b61068d8161067a565b811461069857600080fd5b50565b6000813590506106aa81610684565b92915050565b600080600080608085870312156106ca576106c96104cc565b5b60006106d88782880161051f565b945050602085013567ffffffffffffffff8111156106f9576106f86104d1565b5b6107058782880161064c565b935050604085013567ffffffffffffffff811115610726576107256104d1565b5b6107328782880161064c565b92505060606107438782880161069b565b91505092959194509250565b600060208284031215610765576107646104cc565b5b60006107738482850161051f565b91505092915050565b600081519050919050565b600082825260208201905092915050565b60005b838110156107b657808201518184015260208101905061079b565b60008484015250505050565b60006107cd8261077c565b6107d78185610787565b93506107e7818560208601610798565b6107f08161053e565b840191505092915050565b6000602082019050818103600083015261081581846107c2565b905092915050565b600060208284031215610833576108326104cc565b5b600082013567ffffffffffffffff811115610851576108506104d1565b5b61085d8482850161064c565b91505092915050565b61086f816104f6565b82525050565b61087e8161067a565b82525050565b6000608082019050818103600083015261089e81876107c2565b90506108ad6020830186610866565b81810360408301526108bf81856107c2565b90506108ce6060830184610875565b95945050505050565b600081905092915050565b60006108ed8261077c565b6108f781856108d7565b9350610907818560208601610798565b80840191505092915050565b600061091f82846108e2565b915081905092915050565b7f4e487b7100000000000000000000000000000000000000000000000000000000600052602260045260246000fd5b6000600282049050600182168061097157607f821691505b6020821081036109845761098361092a565b5b50919050565b7f44494420616c7265616479207265676973746572656400000000000000000000600082015250565b60006109c0601683610787565b91506109cb8261098a565b602082019050919050565b600060208201905081810360008301526109ef816109b3565b9050919050565b60008190508160005260206000209050919050565b60006020601f8301049050919050565b600082821b905092915050565b600060088302610a587fffffffffffffffffffffffffffffffffffffffffffffffffffffffffffffffff82610a1b565b610a628683610a1b565b95508019841693508086168417925050509392505050565b6000819050919050565b6000610a9f610a9a610a958461067a565b610a7a565b61067a565b9050919050565b6000819050919050565b610ab983610a84565b610acd610ac582610aa6565b848454610a28565b825550505050565b600090565b610ae2610ad5565b610aed818484610ab0565b505050565b5b81811015610b1157610b06600082610ada565b600181019050610af3565b5050565b601f821115610b5657610b27816109f6565b610b3084610a0b565b81016020851015610b3f578190505b610b53610b4b85610a0b565b830182610af2565b50505b505050565b600082821c905092915050565b6000610b7960001984600802610b5b565b1980831691505092915050565b6000610b928383610b68565b9150826002028217905092915050565b610bab8261077c565b67ffffffffffffffff811115610bc457610bc361054f565b5b610bce8254610959565b610bd9828285610b15565b600060209050601f831160018114610c0c5760008415610bfa578287015190505b610c048582610b86565b865550610c6c565b601f198416610c1a866109f6565b60005b82811015610c4257848901518255600182019150602085019450602081019050610c1d565b86831015610c5f5784890151610c5b601f891682610b68565b8355505b6001600288020188555050505b505050505050565b60006040820190508181036000830152610c8e81856107c2565b9050610c9d6020830184610875565b939250505056fea264697066735822122027b52c05c9086f62f26d21431aac76deb9ed196179643b47d511f886d7eeb4ee64736f6c63430008140033",
  "linkReferences": {},
  "deployedLinkReferences": {}
}